:020000040800F2
:10000000A00D0020A901000857280008312500088C
:1000100055280008DD0B0008853A000800000000A4
:100020000000000000000000000000005330000845
:10003000DF0B000800000000F32B00083536000835
:10004000C3010008C3010008C3010008C301000880
:10005000C3010008C3010008E10B0008C301000848
:10006000C3010008C3010008C3010008C301000860
:10007000C3010008C3010008C3010008C301000850
:10008000C3010008C3010008C3010008C301000840
:10009000793A0008C3010008C3010008C301000841
:1000A000C3010008C3010008C3010008C301000820
:1000B000C3010008C3010008C3010008C301000810
:1000C000C3010008C3010008C3010008C301000800
:1000D000C3010008C3010008C3010008C3010008F0
:1000E000C3010008C3010008C3010008C3010008E0
:1000F000C3010008C3010008C3010008C3010008D0
:10010000C30100080000000000000000C301000857
:10011000C3010008C3010008C3010008C3010008AF
:10012000C3010008C3010008C3010008C30100089F
:10013000C3010008C3010008000000000000000027
:10014000C3010008C3010008C3010008000000004B
:10015000000000000000000000000000000000009F
:10016000C3010008C3010008C3010008C30100085F
:10017000C3010008C3010008C3010008C30100084F
:10018000C3010008C30100080000000000000000D7
:10019000C3010008DFF80CD000F01CFA004800474B
:1001A000F1450008A00D002006488047064800479A
:1001B000FEE7FEE7FEE7FEE7FEE7FEE7FEE7FEE717
:1001C000FEE7FEE7B1360008950100082DE9F05F73
:1001D0000546002092469B468846064681464024B6
:1001E0001BE0284641464746224600F020F8534689
:1001F0005A46C01A914110D311461846224600F0C3
:1002000033F92D1A67EB01084F46224601200021E1
:1002100000F02AF917EB00094E41201EA4F1010459
:10022000DFDC484631462A464346BDE8F09F202A97
:1002300004DB203A21FA02F00021704721FA02F390
:10024000D040C2F120029140084319467047000097
:100250000649074A0868504343F2390210440860CF
:1002600040087047014908607047000064000020A2
:100270006D4EC64140EA01039B0703D009E008C95F
:10028000121F08C0042AFAD203E011F8013B00F85B
:10029000013B521EF9D27047D2B201E000F8012BA7
:1002A000491EFBD270470022F6E710B513460A46F6
:1002B00004461946FFF7F0FF204610BD421C10F817
:1002C000011B0029FBD1801A70472DE9FE4F8046A3
:1002D00081EA0300C00F0C46009021F0004123F09A
:1002E0000045B8EB0200A94105D2404621469046A0
:1002F0001C460B46024623F00040104347D0270D12
:10030000C7F30A00C3F30A510290401A0190402833
:100310006BDAC3F3130040F4801B0098924620B1BF
:100320000023D2EB030A63EB0B0B01985946C0F193
:100330004002504600F098F806460D465046594691
:10034000019A00F0A0F810EB08006141002487EA50
:10035000115284EAE7731A4340D0009A62B3019ABB
:10036000012A4FEA075215DC001B61EB02014FF036
:10037000004202EA0752CDE90042001C41F580111B
:1003800032462B4600F0D7F803B0BDE8F08F404668
:100390002146F9E7001B61EB0201001C41F58013C7
:1003A00000185B412018A2F5001747EB030140EA53
:1003B000D570B6196D4111E06D084FEA360645EA71
:1003C000C0754FEA0752001B61EB0201001C41F5AA
:1003D000801149084FEA30000019514132462B463E
:1003E00003B0BDE8F04F00F097B80098012240003C
:1003F0000023D0EB020263EBE073009821464FEA42
:10040000E074B8EB000061EB0401E9E783F000431E
:100410005BE781F0004158E70EB540F233420292AB
:100420000022CDE90022134600F085F803B000BD9C
:1004300001F0004330B421F0004150EA010206D03F
:100440000A0DA2F56072C1F31301002A02DC30BC70
:1004500000207047440F44EAC104C100E01830BCDA
:1004600000EBC25000F021B8202A04DB203A00FA49
:1004700002F1002070479140C2F1200320FA03F3FB
:10048000194390407047202A06DBCB17203A41FAE7
:1004900002F043EAE07306E041FA02F3D040C2F111
:1004A000200291400843194670470029A8BF7047B1
:1004B000401C490008BF20F00100704710B4B0FA9A
:1004C00080FC00FA0CF050EA010404BF10BC704735
:1004D00049B1CCF1200421FA04F411FA0CF118BF4F
:1004E000012121430843A3EB0C01CB1D4FEA00611E
:1004F0004FEA102042BF002010BC704700EBC350F1
:1005000010440029A4BF10BC7047401C490008BF1C
:1005100020F0010010BC704710B5141E73F10004E8
:1005200008DA401C41F1000192185B411A4301D1E5
:1005300020F0010010BD2DE9F04D92469B4611B10F
:10054000B1FA81F202E0B0FA80F220329046FFF771
:100550008BFF04460F4640EA0A0041EA0B0153466E
:100560005A46084313D0114653EA010019D0C8F186
:1005700040025046FFF75BFE05460E465046594680
:100580004246FFF771FF084305D0012004E02046F2
:100590003946BDE8F08D0020054346EAE0762C435D
:1005A00037430A986305E40AA0EB08000022FD0A1D
:1005B00044EA47540A3002D500200146E9E7010524
:1005C00010196941DDE9084500196941BDE8F04DA0
:1005D000A2E70000064C074D06E0E06840F001038A
:1005E00094E8070098471034AC42F6D3FFF7D6FDE5
:1005F000004700082047000870B586B014460D4635
:10060000064600F0CDFCC0088DF8040000F0C8FCE0
:10061000C00A8DF805003079142340428DF8060099
:10062000B08800224042000A8DF8070030788DF82B
:1006300008003088000A8DF80900307A40428DF8B1
:100640000A0030894042000A8DF80B0028798DF8A5
:100650000C00A888000A8DF80D0028788DF80E008F
:100660002888000A8DF80F00287A8DF81000288954
:10067000000A8DF8110020798DF81200A088000A78
:100680008DF8130020788DF814002088000A8DF86A
:100690001500207A8DF816002089000A8DF81700C1
:1006A00001A8009004488188008803F065FC0028B8
:1006B00000D0472006B070BD160000202DE9F04F95
:1006C0008BB04FF0020800258DF81C808DF81D506E
:1006D000B4208DF81E009A208DF81F004FF0E1091C
:1006E0008DF8209011201B248DF821008DF81840E2
:1006F000C52601208DF81960D5278DF822008DF8C8
:100700001A704FF0A50B8DF81BB08DF823501022F6
:1007100006A949480995FFF7ADFD48480090102308
:1007200001224549022003F0A9FB00287ED18DF863
:1007300018408DF81960D52000278DF81A008DF823
:100740001C808DF81D7036208DF81E00B246AC203E
:100750008DF81F008DF8209011268DF82160012062
:100760008DF8220009979DF826008DF81BB040F007
:1007700014008DF8260030484D468DF82370102265
:1007800006A91030FFF776FD2C4A4FF01009921C95
:100790000420CDE90209CDE904721220CDE9000759
:1007A000264F254A082310320221388803F00BFB1C
:1007B000E0BB8DF818408DF819A0D52000248DF8E5
:1007C0001A008DF81C808DF81D4036208DF81E0013
:1007D000AC208DF81F008DF820508DF8216001208D
:1007E0008DF822008DF824408DF82540E0208DF80A
:1007F000260011488DF81BB08DF823408DF8274056
:10080000102206A91030FFF735FD3A1DCDE904424C
:100810000421CDE90219CDE90094074A14231032CE
:100820000221388803F0CFFA002800E000E000D071
:1008300047200BB0BDE8F08FA00500201600002077
:100840002DE9F04F8BB01B278DF818704FF0C508BD
:1008500002258DF819804FF0D50900248DF81A90E3
:10086000A5208DF81B008DF81C508DF81D40B4207C
:100870004FF0E10A8DF81E008DF820A04FF0110B0B
:100880009A208DF821B08DF81F008DF822508DF838
:100890002340102206A927480994FFF7EBFC2648BD
:1008A00004260090334601222249022003F0E6FA92
:1008B000E0BB8DF818708DF819808DF81A90A5207E
:1008C0008DF81B008DF81C508DF81D4036208DF8DA
:1008D0001E00AC208DF81F0001208DF820A08DF89F
:1008E00024408DF821B08DF825008DF822001148A4
:1008F0008DF826408DF823408DF82740102206A958
:100900001030FFF7B7FC0C491020891C0591CDE988
:1009100003048DE851000848064A801F082310325E
:100920000221C08803F04FFA002800D047200BB006
:10093000BDE8F08FA00500201C00002030B5002489
:1009400087B0012801D9A41E2EE01949C0EBC002CE
:1009500051F82010174800EB021529601649C869A4
:1009600040F40030C861C86900F40030059048695F
:1009700040F4003048614869694600F40030059051
:100980000C20009002200190002002900320039090
:10099000072004904FF0904000F00EFA284601F036
:1009A0002BFF08B16FF0030407B0204630BD0000F4
:1009B00038000020540600200010024000F0F0BA79
:1009C00070B50446114886B0416941F48021416107
:1009D00040690F4E00F48020059036F81400009016
:1009E0000120019002900B4D0320039055F8240044
:1009F000694600F0E1F936F8141055F82400002299
:100A000000F0C9FA06B0002070BD000000100240DE
:100A1000B646000830000020054910B5054A31F8F7
:100A2000101052F8200000F0B2FA002010BD0000B3
:100A3000B646000830000020014901208870704748
:100A400008000020064910B5064A31F8101052F887
:100A5000200000F097FA08B1002010BD012010BD61
:100A6000B846000834000020F0B50446254887B099
:100A70000025426942F400224261406900F40020EE
:100A80000590214830F814000090022002900320C5
:100A900003901E4850F8240091B11D490191694608
:100AA00000F08AF918480C3050F824101748083024
:100AB00000EBC400064600F0BFF82F1F78B905E030
:100AC00000210191694600F077F917E00E480021F6
:100AD000001D50F82420304600F0C6F808B13D460D
:100AE0000CE0094800220830A0F10C0650F8241050
:100AF000305700F0B7FA305700F0A8FA07B0284690
:100B0000F0BD000000100240B8460008340000208C
:100B1000000011100D4910B50B4808600C48002466
:100B20000168491C016001290CD1084801F023FA31
:100B300040B9064802F09CF9044801F03BFE08B1B8
:100B40006FF00704204610BD00300140F005002082
:100B50002800002038B54FF48053009313460A460E
:100B600001460024034801F065FA00B1A41F2046A5
:100B700038BD0000F005002010B50020FFF75CFF35
:100B800010BD00003EB50D46044600F009FAC0084D
:100B90008DF8040000F004FAC00A8DF805008DF805
:100BA0000640200A8DF80700200C8DF80800200E62
:100BB0008DF809008DF80A50280A8DF80B0001A85D
:100BC00000900548082300224188008803F0D4F9EA
:100BD000002800D047203EBD16000020FEE77047E9
:100BE000014800F02FB80000000000200348012257
:100BF000426041800520401EFDD17047200000204A
:100C000003480021416001220270417070470000DA
:100C10002000002070B5044600F0C2F90546601CB3
:100C200002D004480078044400F0BAF9401BA04206
:100C3000FAD370BD4400002010B10160002070475D
:100C400001207047017801F01F0201219140054AFF
:100C500013680B4204D011604068002800D00047A0
:100C600070470000140401400346002009B1012030
:100C700070475A60704700002DE9F04F00230127AC
:100C80000F24DFF814A181E007FA03F616EA010247
:100C90007BD005684FEA43084FF0030C0CFA08FCC0
:100CA00025EA0C050560DD0800EB8508C346D8F889
:100CB00020905D074FEAD56804FA08F529EA05098E
:100CC000CBF82090856825EA0C0585604568B5431A
:100CD0004560C56825EA0C05C56023F0030606EBF0
:100CE0000A05D5F808C09E07360F04FA06F909EA86
:100CF0000C08B0F1904F06D0DFF8A0C0604505D1D8
:100D00004FF0010C27E04FF0000C24E0DFF890C01A
:100D1000604502D14FF0020C1DE0DFF888C060454D
:100D200002D14FF0030C16E0DFF87CC0604502D121
:100D30004FF0040C0FE0DFF874C0604502D14FF0B3
:100D4000050C08E0DFF868C0604502D14FF0060CE2
:100D500001E04FF0070C0CFA06FCC44515D1D5F89C
:100D600008C02CEA090CC5F808C0124E3568954336
:100D70003560361D356895433560351D2E689643C0
:100D80002E602D1D2E6896432E605B1C31FA03F2F7
:100D90007FF47AAFBDE8F08F000001400004004806
:100DA00000080048000C00480010004800140048EB
:100DB00000180048000401402DE9F84FDFF8A0B109
:100DC000002301274FF0030A4FF00F090BF1040E27
:100DD000BEE000BF07FA03F63440220072D04C6830
:100DE000022C01D0122C12D1DC0800EB840CDCF8B0
:100DF00020405D07ED0E09FA05F824EA0804D1F851
:100E0000108008FA05F848EA0408CCF82080D0F8E9
:100E100000805D0091F804C00AFA05F40CF0030CA0
:100E200028EA04080CFA05FC4CEA080CC0F800C0DB
:100E3000D1F804C0BCF1010F08D0BCF1020F05D0FD
:100E4000BCF1110F02D0BCF1120F16D1D0F808C0BE
:100E5000D1F80C802CEA040C08FA05F848EA0C08D2
:100E6000C0F80880D0F804C02CEA060C0E79C6F34E
:100E700000169E4046EA0C064660C668A6438C688B
:100E8000AC403443C4604C68E40060D5354CA5697F
:100E900045F00105A561A46923F0030504F00104F0
:100EA0000094314C2E19B4689D074FEA157C09FA5D
:100EB0000CF5AC43B0F1904F05D02C4DA84204D1B5
:100EC00001251CE043E0002519E0294DA84201D18D
:100ED000022514E0274DA84201D103250FE0264D3D
:100EE000A84201D104250AE0244DA84201D10525DC
:100EF00005E0234DA84201D1062500E0072505FAAB
:100F00000CF52543B560DBF800405D464E68944320
:100F1000F60300D514432C60DEF8004075464E6899
:100F20009443B60300D514432C600D4D08352C684E
:100F30004E689443F60200D514432C60084D0C35DE
:100F40002C684E689443B60200D514432C605B1C99
:100F50000A681446DA407FF43DAFBDE8F88F000020
:100F6000000401400010024000000140000400485D
:100F700000080048000C0048001000480014004819
:100F8000001800480069084000D0012070474269FD
:100F90004A40426170470AB181617047816270477F
:100FA00001488068704700004400002002488168C2
:100FB000027811448160704744000020074810B552
:100FC000016841F010010160032000F06BF800207F
:100FD00000F006F800F024F8002010BD00200240C8
:100FE00070B50D4D04464FF47A712878B1FBF0F0DE
:100FF0000A490968B1FBF0F001F03BF948B9102C3F
:1010000007D200222146501E00F02CF800206C6010
:1010100070BD012070BD0000440000205000002081
:10102000094808B5816941F001018161816901F0D8
:1010300001010091C16941F08051C161C06900F0B6
:101040008050009008BD00000010024000F01F0218
:10105000012191404009800000F1E020C0F800111A
:1010600070470000F0B40E4B1B680C46C3F302231C
:10107000C3F10705042D00D90425191D072901D244
:10108000002300E0DB1E012606FA05F1491E21407F
:1010900099409E40761E16403143F0BC01F0DCBB07
:1010A0000CED00E0064900F0070208684FF6FF0368
:1010B000184040EA0220034A1043086070470000CD
:1010C0000CED00E00000FA057047704770B501F0C4
:1010D0007F05C5EBC50400EB84041E46C4E97723F5
:1010E0000022C4F8E42184F8CD2184F8CC51D4F84E
:1010F000D85104F5E674AB4201D92B46F21A62616D
:10110000056840F2064201F07F0102EBC101B5F82B
:1011100050604FF6FF7235440D443E2B20D9C3F387
:101120004F11DB0619D000BF02EA812141F40041D2
:1011300002E000BF02EA812129802278016831F8AB
:1011400022004BF68F73184080F4405048F2800321
:10115000184321F82200002070BD491E89B2E3E740
:10116000C3F34F01DB07E5D0491C89B2E2E770B554
:10117000064601F07F00C0EBC00106EB81040021B0
:101180002164C4E90E23012284F8292004F8280FE1
:101190001D46E068834203D90546181A606100E0E5
:1011A0006161A07A38B12178306830F821104906A1
:1011B00012D5228911E0ABB2A2882169306801F012
:1011C00005FD3068B0F8501040F202420844217822
:1011D00002EBC101455220E0E288ABB2216901F087
:1011E000F5FC607848F68F7210B101280BD014E03E
:1011F0002078316831F82030134048F2C0021343A0
:1012000021F8203009E02178336833F821001040BC
:101210004CF28002104323F821002278316831F823
:10122000220048F6BF73184080F0300048F2800377
:10123000184321F82200002070BD10B50446006854
:10124000B0F84400000402D5204601F015FB2068E8
:10125000B0F8441049050AD54FF6FF31A0F8441004
:10126000204600F0D3F80021204600F0D2F8206894
:10127000B0F84410490403D54BF6FF71A0F84410B0
:101280002068B0F84410890403D54DF6FF71A0F82A
:1012900044102068B0F84410C90412D530F8401F3B
:1012A00021F004010180206830F8401F21F008017E
:1012B0000180204600F0ABF821684EF6FF70A1F8DF
:1012C00044002068B0F84410090518D530F8401FD4
:1012D00041F00801018021684FF2FF70A1F844003D
:1012E000206830F8401F41F0040101802068B0F808
:1012F0004400C043C00402D5204600F0A1F8206895
:10130000B0F84410890506D54FF6FF51A0F84410F7
:10131000204600F07DF82068B0F84410C90503D5D8
:101320004FF6FF61A0F8441010BD70B504004FF0F7
:10133000000604D094F87103002510B106E00120E6
:1013400070BD84F87053204600F042F8032084F802
:10135000710301220CE0C6EBC60004EB800080F8AC
:10136000292000F8286F761CC570C56005614561AD
:101370006068B042EFD8002010E0C0EBC00104EB81
:10138000810181F8CD5181F8CC0181F8CF51C1F8AC
:10139000D851C1F8DC51401CC1F8E051616881426C
:1013A000EBD82068A0F840202068A0F840502068C2
:1013B000A0F844502068A0F8505021684FF43F40F6
:1013C000A1F8400084F8245084F87123002070BDF7
:1013D00008B500680B49884212D10B48C16941F435
:1013E0000001C161C069002200F4000000901146B4
:1013F0001420FFF737FEBDE808401420FFF726BE93
:1014000008BD0000005C00400010024070477047BB
:10141000704790F87023012A0AD0012280F87023C7
:1014200041B180F82410002180F8701308467047FD
:101430000220704702688021A2F84C10F3E7704741
:10144000704700002DE9F84F044600689F4DC00327
:101450006FD5E8690026C00008D4E86940F08050E4
:10146000E861E869012600F0805000909848016822
:10147000C90512D40168804641F480710160FFF70C
:101480008FFD074605E000BFFFF78AFDC01B6428FB
:1014900035D8D8F80000C005F6D5286A10F4407099
:1014A00053D0A18801F4407181424ED0286A4FF494
:1014B000803191FAA1F2B2FA82F29700854A4FF098
:1014C0000108174420F44070C7F8008491FAA1F194
:1014D000B1FA81F102EB81010023C1F800342862E6
:1014E000C00732D0FFF75CFD074641F2883A4FF063
:1014F000020907E0FFF754FDC11B514502D9032043
:10150000BDE8F88F99FAA9F1B1FA81F141F04002F2
:101510004846B8EB521F01D12A680CE090FAA0F2BD
:10152000B2FA82F242F04002B0EB521F02D12A6AB4
:1015300001E015E06A6A99FAA9F0B0FA80F000F0CB
:101540001F0008FA00F10A42D4D0286A616820F42A
:101550004070084328621EB1E86920F08050E861BD
:101560002078C00705D0286BA16820F0030008434D
:1015700028632078800705D5286BE16820F4403087
:10158000084328632078400705D5286B216920F49B
:101590004020084328632078800605D5286BE16940
:1015A00020F01000084328632068800305D5686890
:1015B000616D20F48000084368602078400605D5FE
:1015C000286B216A20F0200008432863206840032C
:1015D00005D5286B616A20F0400008432863207815
:1015E000000705D5286B616920F440100843286383
:1015F0002078C00605D5286BA16920F44000084377
:1016000028632088800505D56868216B20F40000D8
:10161000084368602078000605D5E86AA16A20F4CE
:10162000F8700843E8622088C00505D5E86AE16AD9
:1016300020F478500843E8622088C00405D5286B60
:10164000616B20F48070084328632088800405D5EE
:10165000286B216C20F40070084328632068C002C6
:1016600005D5286BA16B20F08070084328632068A3
:10167000800205D5286BE16B20F0007008432863D9
:101680002068400205D5286B616C20F48060084317
:1016900028632068000205D5286BA16C20F4006047
:1016A000084328632068C00105D5286BE16C20F44D
:1016B0000050084328632068800105D5286B216D00
:1016C00020F4004008432863002019E7001002407E
:1016D00000700040000042422DE9F0470F4605002F
:1016E00069D04A4E306800F00700B84209D230682D
:1016F00020F0070038433060306800F00700B8423F
:1017000059D12878424C800705D56068A96820F037
:10171000F000084360602878C0073DD06968012068
:1017200001290DD0022923D05FF0020393FAA3F21E
:10173000B2FA82F242F02002520904D0226803E099
:101740004FF40033F2E7626A93FAA3F3B3FA83F338
:1017500003F01F03984002422DD0606820F0030080
:1017600008436060FFF71CFC804641F288390CE0BA
:101770004FF00073DAE700BFFFF712FCA0EB08019F
:10178000494502D90320BDE8F0876068696800F028
:101790000C00B0EB810FEFD1306800F00700B842C9
:1017A0000BD9306820F0070038433060306800F013
:1017B0000700B84201D00120E5E72878400705D5A9
:1017C0006068E96820F4E0600843606028780007FA
:1017D00006D56068296920F4605040EAC100606065
:1017E00000F04CF86168F02292FAA2F201F0F001E8
:1017F000B2FA82F2D140074A515CC84006490860FB
:101800000020FFF7EDFB0020BDE7000000200240B4
:1018100000100240E846000850000020084809492E
:10182000006849684FF4E06292FAA2F201F4E061C4
:10183000B2FA82F2D140044A515CC84070470000BD
:101840005000002000100240F846000808480949EE
:10185000006849684FF4605292FAA2F201F46051B4
:10186000B2FA82F2D140044A515CC840704700008D
:101870005000002000100240F8460008124B10B53E
:101880005968124801F00C02042A1CD0082A1AD107
:101890004FF4701494FAA4F401F47012B4FA84F4BE
:1018A000E2400B4CDB6AA25C0F2494FAA4F403F030
:1018B0000F03B4FA84F4E340054CC9031034E35C2D
:1018C000B0FBF3F0504310BD0010024000127A004C
:1018D000C84600082DE9F84F04007DD02078FA4D65
:1018E000C0074FF0010637D068687704C0F3810065
:1018F000012819D06868C0F38100022804D1686803
:10190000C0F3C13002280FD06068B0F5803F24D00A
:1019100010B1B0F5A02F2AD0286820F480302860BC
:10192000286820F480201BE097FAA7F0B0FA80F036
:1019300040F02000400901D0286800E0686A97FA6A
:10194000A7F1B1FA81F101F01F0106FA01F1084295
:101950004ED060680028C0D04AE0286840F480304B
:101960002860606820B3FFF71BFB80460AE0286808
:1019700040F480202860F0E7FFF712FBA0EB08009E
:10198000642873D897FAA7F0B0FA80F040F02000EE
:10199000400901D0286800E0686A97FAA7F1B1FA17
:1019A00081F101F01F0106FA01F10842E4D01FE0C5
:1019B000FFF7F6FA804605E0FFF7F2FAA0EB080021
:1019C0006428DED897FAA7F0B0FA80F040F0200043
:1019D000400902D0286801E0B9E0686A97FAA7F1E7
:1019E000B1FA81F101F01F0106FA01F10842E3D1D9
:1019F0002078DFF8D88280074FF0000A4FF0020706
:101A00005DD568684FF0F80B10F00C0F15D06868C2
:101A1000C0F38100022804D16868C0F3C1300128F6
:101A20000BD0E068A0B396FAA6F0B0FA80F048F8C0
:101A30002060FFF7B5FA814620E097FAA7F0B0FAE8
:101A400080F040F02000400901D0286800E0686A7A
:101A500097FAA7F1B1FA81F101F01F0106FA01F13D
:101A6000084221D0E068012871D11DE056E100BF95
:101A7000FFF796FAA0EB09000228A2D897FAA7F080
:101A8000B0FA80F040F02000400902D0286801E060
:101A900016E0686A97FAA7F1B1FA81F101F01F0127
:101AA00006FA01F10842E3D028689BFAABF22169FB
:101AB000B2FA82F220F0F80091400843286024E056
:101AC00096FAA6F1B1FA81F148F821A0FFF768FA79
:101AD000814605E0FFF764FAA0EB09000228CCD8A4
:101AE00097FAA7F0B0FA80F040F02000400901D04A
:101AF000286800E0686A97FAA7F1B1FA81F101F06D
:101B00001F0106FA01F10842E4D1207800076AD5E6
:101B10006069A0B396FAA6F0B0FA80F008EB8000F6
:101B2000C0F88064FFF73CFA814605E0FFF738FA19
:101B3000A0EB09000228A0D897FAA7F0B0FA80F02D
:101B400040F06000B6EB501F02D128680CE073E152
:101B500097FAA7F0B0FA80F040F06000B7EB501FA2
:101B600001D1286A00E0686A97FAA7F1B1FA81F119
:101B700001F01F0106FA01F21042D7D033E0FFE76F
:101B800096FAA6F0B0FA80F008EB8000C0F880A4C6
:101B9000FFF706FA814605E0FFF702FAA0EB09001D
:101BA00002289CD897FAA7F0B0FA80F040F06000C5
:101BB000B6EB501F01D128680BE097FAA7F0B0FAF6
:101BC00080F040F06000B7EB501F01D1286A00E0C0
:101BD000686A97FAA7F1B1FA81F101F01F0106FADC
:101BE00001F21042D8D12078400774D5E8694FF04F
:101BF0000009C00009D4E86940F08050E861E86954
:101C00004FF0010900F08050009031480168C9058B
:101C100012D4016841F480710160FFF7C1F9834675
:101C200006E000BFFFF7BCF9A0EB0B00642875D8F5
:101C300027480068C005F5D5A06801280AD008B17A
:101C4000052811D0286A20F001002862286A20F0B7
:101C5000040002E0286A40F001002862A068C8B3CE
:101C6000FFF79EF983460DE0286A40F004002862E1
:101C7000F0E700BFFFF794F9A0EB0B0141F28830C9
:101C800081424BD897FAA7F0B0FA80F040F04000BC
:101C9000B6EB501F01D128680BE097FAA7F0B0FA15
:101CA00080F040F04000B7EB501F01D1286A00E0FF
:101CB000686A97FAA7F1B1FA81F101F01F0106FAFB
:101CC00001F21042D6D035E000100240000042423E
:101CD0000070004000E034E0FFF762F9834607E05F
:101CE000FFF75EF9A0EB0B0141F28830814215D875
:101CF00097FAA7F0B0FA80F040F04000B6EB501F22
:101D000001D128680CE097FAA7F0B0FA80F040F013
:101D10004000B7EB501F02D1286A01E089E0686AF1
:101D200097FAA7F1B1FA81F101F01F0106FA01F269
:101D30001042D5D1B9F1000F03D0E86920F08050EE
:101D4000E861A06980B36968C1F38101022973D099
:101D50004FF080714F000228524609D091FAA1F04D
:101D6000B0FA80F048F82020FFF71AF9044664E042
:101D700091FAA1F0B0FA80F08A46C14648F82020D6
:101D8000FFF70EF9804605E0FFF70AF9A0EB08001F
:101D900002284ED897FAA7F0B0FA80F040F0200061
:101DA000400902D0286801E05CE0686A97FAA7F170
:101DB000B1FA81F101F01F0106FA01F10842E3D105
:101DC000E86A616A20F00F000843E862D4E907106E
:101DD0000843696821F47611084368609AFAAAF00A
:101DE000B0FA80F049F82060FFF7DAF8044604E022
:101DF000FFF7D6F8001B02281BD897FAA7F0B0FA15
:101E000080F040F02000400901D0286800E0686AB6
:101E100097FAA7F1B1FA81F101F01F0106FA01F179
:101E20000842E5D01EE000BFFFF7BAF8001B022809
:101E300003D90320BDE8F88F16E097FAA7F0B0FAAF
:101E400080F040F02000400901D0286800E0686A76
:101E500097FAA7F1B1FA81F101F01F0106FA01F139
:101E60000842E1D10020E5E70120E3E770B5040076
:101E700002D0607F10B106E0012070BD0020207705
:101E8000204600F049F8022060772168CA204862A5
:101E9000216853204862204600F0DCFEFF2504261E
:101EA00018BB206881681B4A1140816021688868DE
:101EB00062681043D4E904231A4310438860216800
:101EC000E068086120680169228941EA02410161F4
:101ED0002068C16821F08001C160206880688006A8
:101EE00007D4204600F02CF818B1206845626677C8
:101EF000C2E72068016C21F4802101642068016C34
:101F0000A2691143016420684562012060770020C6
:101F100070BD0000BFFF8FFF0068074988420AD1EB
:101F20000120C10391FAA1F1044AB1FA81F102EB57
:101F30008101C1F8000470470028004000004242BF
:101F400070B504460068C16821F0A001C160FFF7C8
:101F500027F805464FF47A7607E000BFFFF720F830
:101F6000401BB04201D9032070BD2068C0688006C4
:101F7000F4D5002070BD90F85D0070472DE9F04168
:101F8000040005D00025A56294F85D0018B107E0B3
:101F90000120BDE8F08184F85C50204600F049F84B
:101FA000022384F85D302068016821F0400101605F
:101FB000E0684FF4E066B04201D9002101E04FF43F
:101FC0008051B0F5706F02D0B04200D0A562276B8F
:101FD000012227B9B04201D9236300E02263D4E98A
:101FE00001031843D4E9043633431843238B03F425
:101FF00000731843E3691843236A1843A36A18431C
:1020000023681860636B606AA66918430427E36855
:1020100007EA16463343184308432168486020689E
:10202000C16921F40061C161256684F85D2000204A
:10203000AFE770472DE9F05F044690F85C0000269A
:102040000A9F994692460D464FF0010801280ED08E
:10205000012084F85C00FEF7A3FF834694F85D003E
:10206000616801280CD0B1F5827F07D102E002201F
:10207000BDE8F09FA16809B9042801D00226F0E06C
:10208000002D79D0BAF1000FFBD0B9F1000FF8D0D4
:1020900094F85D00042802D0052084F85D0000203B
:1020A0002066C4F840A0A4F84690A4F84490A56324
:1020B000A4F83E90A4F83C90E0642065E0684FF4FA
:1020C000E061884203D8B4F84600012804D92068AA
:1020D000426822F4805203E02068426842F4805251
:1020E000426020680268520603D4026842F040024F
:1020F0000260E068884260683FD910B1E08F012833
:1021000032D1216835F8020BC860E08F401EE087AD
:102110002AE000BFB8F1000F0DD0E08F58B1206861
:102120008168890707D535F8021BC160E08F401E22
:10213000E0874FF00008B4F8460068B12068816875
:10214000C90709D0C0682AF8020BB4F84600401E3F
:10215000A4F846004FF00108781C05D0FEF720FFD8
:10216000A0EB0B00B84268D2E08F0028D2D1B4F8BF
:1021700046000028CED169E072E010B1E08F01285E
:102180005DD1E08F012806D9216835F8020BC860BF
:10219000E08F801E05E0206815F8011B0173E08FB9
:1021A000401EE0874BE000BFB8F1000F16D0E08F73
:1021B000A0B120688168890710D5E18F012905D970
:1021C00035F8021BC160E08F801E04E015F8011B8A
:1021D0000173E08F401EE0874FF00008B4F846001E
:1021E00018B320688168C9071FD0B4F846100129C8
:1021F00011D9C0682AF8020BB4F84600801EA4F872
:102200004600B4F8460001280DD82068416841F422
:102210008051416007E0017B0AF8011BB4F84600D9
:10222000401EA4F846004FF00108781C07D0FEF7C6
:10223000B7FEA0EB0B00B84201D3032611E0E08FFC
:102240000028B1D1B4F846000028ADD15A4639462D
:10225000204600F041FE08B120202066206E00B12B
:102260000126012084F85D00002084F85C003046DF
:10227000FEE610B5401EB0F1807F01D3012010BDF5
:102280004FF0E02460610F21601700F0E5FA0020B4
:10229000A06107202061002010BD10B5040003D00C
:1022A00094F8690010B107E0012010BD002084F807
:1022B0006800204600F026F8242084F86900206891
:1022C000016821F001010160204601F0B7FA012800
:1022D000EBD0606A10B1204601F01EFA2068416818
:1022E00021F4904141602068816821F02A018160D9
:1022F0002068016841F0010101602046BDE81040FE
:1023000001F06EBA10B586B0044614216846FDF798
:10231000CAFF1349206888421FD11248C16941F49D
:102320008021C161C16901F480210591416941F4B5
:10233000801141614069694600F4801005904FF4B6
:102340004070009002200190002002900320039032
:10235000072004900448FEF72FFD06B010BD0000D2
:102360000048004000100240000C004810B54FF03B
:10237000904401212046FEF77FFC02212046FEF713
:102380007BFC4FF480712046FEF776FC002010BDE8
:1023900070B5164886B0416941F400314161406929
:1023A000012500F400300095059011480024CDE986
:1023B00001044FF0904669463046FEF7FDFC2802C6
:1023C0000090CDE90154694630460394FEF7F4FCD1
:1023D00002200090CDE90154694630460394FEF78F
:1023E000EBFCFEF797FB06B070BD0000001002404A
:1023F000000011102DE9F04186B00E460746FF207F
:1024000019A18DF81400D1E90001CDE903010024E0
:102410004FF09048224602214046FEF7BCFD0522BF
:1024200001A903A8FEF796FB9DF80400022812D12B
:10243000BDF807507DB1B5420BD9354609E0012200
:10244000694605A8FEF786FB9DF800003855641C18
:10245000E4B2AC42F3D3012202214046FEF79BFDD9
:1024600006B02046BDE8F0810B000000000000002F
:1024700070B54FF480744FF09045002221462846F5
:10248000FEF789FD0520FEF7C5FB012221462846FF
:10249000FEF781FD0520FEF7BDFB002070BD0000AA
:1024A0002DE9FF4789461FA18246D1E90001CDE908
:1024B0000201FEF775FD05466FF001084FF0FF378A
:1024C0004FF090460024224602213046FEF763FD7D
:1024D0000522694602A8FEF73DFB9DF80000022890
:1024E0000DD03C46012202213046FEF754FDFEF796
:1024F00057FD401B0F280FD96FF002040EE09DF826
:1025000001104846494505D3024608495046FEF7A2
:1025100021FBE7E74446E5E7002CD3DB04B0204687
:10252000BDE8F0870A00000000000000A0040020C1
:10253000FEE700002DE9F04389B040A7012100200B
:10254000FEF792FA0020FEF73BFA0020FEF7F6F9BC
:102550000020FEF777FA3B4E707000213A4801F0F8
:10256000C1FD08A907A801F097FD01F099FE6420BC
:10257000FEF750FB9DF81C404FF00109302C01D9AB
:1025800086F800902F4DBDF820800835FEF708FD35
:10259000011901EB0800FDF765FE0024FDF758FE68
:1025A0002855641CE4B2052CF8D3D020254A2855C0
:1025B00008320621002001F040FD01F0C0FC307817
:1025C000012813D006AB05AA04A9012001F0C3FA23
:1025D0003846FDF773FEC3B200970022BDF8141011
:1025E000BDF8100001F0C8FC58B1FEE706A905A827
:1025F000CDE9000104AB07220021012001F0DFFA40
:10260000E6E7002211491023CDE90032CDE9021995
:1026100007231146012001F00AFB00B1FEE7FEF797
:102620004DF800B1FEE7FEF70BF900B1FEE704211B
:10263000012001F0DEFC09B0BDE8F083426C756555
:102640004E524700080000207546000840E2010095
:1026500010B501F019FABDE8104001F047BF0000C5
:102660002DE9F04F87B014216846FDF71CFE4C4859
:10267000416941F400214161416901F40021059162
:10268000416941F480014161416901F48001059192
:10269000416941F400314161416901F40031059122
:1026A000416941F480214161416901F48021059132
:1026B000416941F480114161416901F48011059142
:1026C000416941F40001416140694FF4817700F4B0
:1026D00000004FF0904A0590002239465046FEF720
:1026E0005AFCDFF8C0B04FF48148012241465846F9
:1026F000FEF751FC002240212B48FEF74CFC4FF422
:102700000079012249462948FEF745FC284E4FF43E
:102710000050CDE900060024694602942348FEF7E4
:102720004BFB01250095CDE9016469465046FEF753
:1027300043FB0097CDE90154694650460394FEF7E8
:102740003BFBCDF80080CDE901546946584603941F
:10275000FEF732FB40200090CDE901546946124853
:102760000394FEF729FB8020CDE9000469460E485A
:102770000294FEF721FBCDF80090CDE901546946A3
:102780000A480394FEF718FB002211460620FEF7C4
:1027900069FC0620FEF75AFC07B0BDE8F08F000088
:1027A00000100240000400480018004800080048DB
:1027B0000000111010B50F4901604FF482714160A3
:1027C00000244FF4E062C0E902424FF40072046159
:1027D000C0E905421822C0E9072407224462C0E983
:1027E0000A420821C0E90C41FFF7C8FB00B10124EF
:1027F000204610BD0030014010B50A490160002498
:102800004FF4E131C0E901140C22C460C0E9044274
:102810008461C46104624462FFF73FFD00B101249A
:10282000204610BD004400400948084901604FF4AB
:10283000E1314160002181600C22C160C0E90412D5
:102840008161C16101624162FFF727BD004800401C
:1028500088000020FEE770470907090E002806DA05
:1028600000F00F0000F1E02080F8141D704700F127
:10287000E02080F8001470472DE9FC5F0027044633
:10288000ADF8007048F60F7A40F2064B40F202486D
:102890007AE100BFBDF8041011F00F062CD030F81B
:1028A0002610ADF80010BDF80010090474D530F8FA
:1028B000261040F68F72114020F82610C6EBC60095
:1028C00004EB800595F8D60105F5E675002820682B
:1028D0007ED0297830F821205204B0F8502002EB45
:1028E000000376D508EBC101595AC1F309015FEA2B
:1028F00001096FD0EA88BEE0BDF80410C90628D4EB
:10290000028802EA0A020280206804F12805B0F871
:1029100050100A18297808EBC100105AC0F30900BA
:102920002064A16B0844A06300212046FEF7CCFB85
:1029300094F824000028ABD068690028A8D194F846
:102940002400216840F08000A1F84C0084F8247035
:102950001AE1018804F5E675ADF80010BDF8001025
:1029600009051AD5B0F850102A7801440BEBC200C3
:10297000085A04F55D71C0F30903AB61AA882068A9
:1029800000F010F92068028840F68F710A4002803A
:102990002046FEF754FDF7E093E0BDF8001009046F
:1029A000D6D5018840F68F72114001802068B0F8BA
:1029B00050102A7801440BEBC200085A83059B0D86
:1029C000AB610CD0AA882969206800F0EBF802E01E
:1029D00036E047E053E02969A869084428610021EE
:1029E0002046FEF772FB2068B0F850100A18E8681D
:1029F00002F206423E280CD9C0F34F11C00601D1A5
:102A0000491E89B24FF6FF7000EA812040F4004071
:102A100009E0C0F34F01C00701D0491C89B24FF64D
:102A2000FF7000EA81201080206801884BF68F72C9
:102A3000114081F4405148F2800211430180A3E02B
:102A4000B0F850102A780B180BEBC201595AC1F399
:102A500009015FEA01091ED0AA884B46296900F0E6
:102A6000A1F818E00BEBC101595AC1F309015FEA63
:102A7000010904D02A894B46296900F093F82A7885
:102A8000216831F8223048F68F70034048F2C000C8
:102A9000034321F82230A96901EB0900A8612969E3
:102AA00001EB09022A616B6913B1E968494504D950
:102AB00029782046FEF709FB03E029782046FEF737
:102AC00005FBBDF8000000065ED5C6EBC60004EBB2
:102AD0008005206830F8262002EA0A0220F8262025
:102AE00095F8320028350028206810D0297830F871
:102AF00021205206B0F85020024419D508EBC1003D
:102B0000105A83059B0DAB611ED0EA8818E0B0F81F
:102B100050102A78014408EBC200085A83059B0D27
:102B2000AB611DD0AA882969206800F04FF817E032
:102B30000BEBC100105A83059B0DAB6104D02A89B1
:102B40002969206800F042F82878216831F82020AF
:102B500048F68F731A404CF280031A4321F8202064
:102B60002068B0F850102A78014408EBC200085AD7
:102B7000C0F30900A86129690A182A6129786B69DC
:102B8000204663B1FEF7F3FA2068B0F84410ADF8C0
:102B9000041009043FF57EAE0020BDE8FC9FFEF75F
:102BA00093FAF1E710B510445C0800F5806008D096
:102BB00030F8022B01F8012B120A01F8012B641ED8
:102BC000F6D1DA0701D00078087010BD10B55B1C93
:102BD00010445B0800F580600AD000BF11F8012B9B
:102BE0005B1E11F8014B42EA042220F8022BF5D1BA
:102BF00010BD70473EB50446FEF7D2F9C0088DF807
:102C00000400FEF7CDF9C00A8DF8050020788DF894
:102C1000060020880823000A8DF8070020798DF827
:102C20000800A0880022000A8DF80900207A8DF89B
:102C30000A002089000A8DF80B0001A800900448C2
:102C40000189C08801F098F9002800D047203EBDD6
:102C50001600002070B504460068C168490614D407
:102C60004FF0FF31C160FEF79BF905464FF47A76CD
:102C700007E000BFFEF794F9401BB04201D90320E2
:102C800070BD2068C0684006F4D5002070BD00000B
:102C900010B52E492DED028B8A88521C904205D129
:102CA0002B4A2C492C48FDF7A7FC42E04988491CD7
:102CB00088423ED1FDF7CCFA052180FB01016FF07F
:102CC000004422460023FDF781FAFDF7A5FB9FEDA6
:102CD000231B53EC112BFDF7F8FAFDF7A9FB08EEC7
:102CE000100AFDF7B5FA642180FB0101224600239A
:102CF000FDF76CFAFDF790FB9FED1A1B53EC112BBF
:102D0000FDF7E3FAFDF794FBF2EE040A00EE100A79
:102D100068EE200AFDEEE00A10EE900ADFED130ADD
:102D200001B220EE200ABDEEC00A10EE100AFDF737
:102D300029FF0F480088002805D0BDEC028BBDE8B4
:102D4000104001F0D9B8BDEC028B10BD1600002078
:102D5000D8050020CC050020C005002000000000A0
:102D600000003B400000000000408F400000C842CF
:102D70002200002030B53A494FF4FA600A6892FB0D
:102D8000F0F300FB1323EBB30A220A604A6892FBBC
:102D9000F0F300FB1323B3B36FF009024A608A68B3
:102DA00092FBF0F300FB132373B30A228A602D49D0
:102DB0000A6892FBF0F300FB132333B364240C6026
:102DC0004A6892FBF0F300FB13238BB36FF06303AD
:102DD0004B608A6892FBF0F500FB15254DB3642229
:102DE0008A6094FBF0F100FB11441F4974B3032483
:102DF0000C6093FBF0F400FB143353B36FF0020349
:102E00004B6003E016E017E018E019E092FBF0F3E6
:102E100000FB132000B30320886014480168494276
:102E2000016041684942416081684942816030BD2A
:102E300008E009E05242A8E75242AFE75242B5E744
:102E40005442BCE75342C3E75242C9E70C686442AC
:102E5000CEE74B685B42D3E788684042DCE700007E
:102E6000C0050020CC050020D8050020E405002086
:102E7000F0B5174887B0816941F48051816181695B
:102E800001F480510591416941F40031416141698A
:102E900001F400310591416941F4802141614069AB
:102EA000022400F480200590C02000250326052779
:102EB0008DE8F10069464FF09040FDF77DFF082056
:102EC0008DE8F10069460348FDF776FF07B0F0BDD5
:102ED0000010024000040048F8B515460E460B46A7
:102EE0000092044600224FF4C05100F019F888B94E
:102EF0003346002280212046009500F060F848B952
:102F0000334600224FF4C0612046009500F008F8D7
:102F1000002804D0206E40F0200020660320F8BD79
:102F20002DE9F8431D4617460E4604464FF4C06887
:102F3000DDF820903CE0464505D127B9007B8DF8AF
:102F400000009DF80000681C32D02DB1FEF728F873
:102F5000A0EB0900A8422BD32068416821F0E001D2
:102F600041606068B0F5827F0BD1A068B0F5004F7A
:102F700002D0B0F5806F04D12068016821F04001D3
:102F80000160A06AB0F5005F09D12068016821F4F2
:102F9000005101602068016841F400510160012086
:102FA00084F85D00002084F85C000320BDE8F8830D
:102FB000206881683140B942BDD10020F6E72DE993
:102FC000F0411D4617460E460446DDF8188034E0F1
:102FD000681C32D02DB1FDF7E3FFA0EB0800A8423A
:102FE0002BD32068416821F0E00141606068B0F5B2
:102FF000827F0BD1A068B0F5004F02D0B0F5806F92
:1030000004D12068016821F040010160A06AB0F598
:10301000005F09D12068016821F400510160206837
:10302000016841F400510160012084F85D00002036
:1030300084F85C000320BDE8F0812068806836EAEF
:10304000000004D00020B842C2D10020F3E70120E4
:10305000F9E7704700B51FA191B0D1E90001CDE9B2
:103060000E011C221DA107A8FDF704F922480178D2
:103070008DF8301041788DF8311081788DF832104C
:10308000C1788DF8331001798DF8341040798DF8BE
:1030900035009DF82E00002140F001008DF82E0033
:1030A000084601F08BF800200390049005900EAACA
:1030B000082106908DE8070001234FF4F0624FF4D9
:1030C000C86100F0EEFD07A91A2000F050FE11B013
:1030D00000BD000009426C75654E5247020A0008A7
:1030E00009426C75654E52470DFF010200F4000065
:1030F00000000000000000001000002070B50C4629
:103100000546FDF7A5F8052180FB01016FF000469B
:1031100032460023FDF75AF8FDF77EF99FED0E1BAE
:1031200053EC112BFDF7D1F8FDF782F92860FDF77C
:103130008FF8502180FB010132460023FDF746F84D
:10314000FDF76AF99FED061B53EC112BFDF7BDF857
:10315000FDF76EF9206070BD0000000000003B40EC
:103160000000000000408F402DE9F05F0025FF4E79
:10317000FF4FDFF800B4DFF8009404466FF0004A18
:1031800014287DD2FDF764F8A0FB0423C11701FBCE
:10319000043100FB05114FF0030CA2FB0C0801FBEE
:1031A0000C81002302FB03115246FDF70FF8316832
:1031B00040180A303060FDF74BF8A0FB0423C1171C
:1031C00001FB043100FB051C0523A2FB03080CFBDB
:1031D0000383002102FB013152460023FCF7F6FF76
:1031E0007168081A0A387060FDF732F8A0FB0423F2
:1031F000C11701FB043100FB05130721A2FB0108E5
:1032000003FB01814FF0000C02FB0C115246634698
:10321000FCF7DCFFB16840180A30B060FDF718F821
:10322000A0FB0423C11701FB043100FB051190181A
:10323000494152460023FCF7C9FF39684018643001
:103240003860FDF705F8A0FB0423C11701FB04312A
:1032500000FB0510810041EA927190005246002364
:10326000FCF7B4FF7968081A64387860FCF7F0FF5F
:10327000A0FB0423C11701FB043100FB051100E092
:10328000A6E00626A2FB060C01FB06C1002302FBFA
:1032900003115246FCF79AFFB96840186430B860D1
:1032A000FCF7D6FFA0FB0423C11701FB043100FB90
:1032B00005130326A2FB060703FB0673002102FB8E
:1032C000013152460023FCF781FFDBF800105E4617
:1032D0004018C01CCBF80000FCF7BAFFA0FB042389
:1032E000C11701FB043100FB0510810041EA927116
:1032F000900052460023FCF769FF7168081AC01E4F
:103300007060FCF7A5FFA0FB0423C11701FB04318B
:1033100000FB05110523A2FB030C01FB03C10027E1
:1033200002FB071152463B46FCF750FFB1684018BC
:10333000C01CB060FCF78CFFA0FB0423C11701FB8D
:10334000043100FB05130326A2FB060703FB0673EB
:10335000002102FB013152460023FCF737FFD9F868
:1033600000104E46081A6438C9F80000FCF770FFD8
:10337000A0FB0423C11701FB043100FB0511052349
:10338000A2FB030C01FB03C1002702FB07115246FD
:103390003B46FCF71BFF7168401864307060FCF717
:1033A00057FFA0FB0423C11701FB043100FB0514E8
:1033B0000721A2FB010504FB0151002302FB0311BD
:1033C0005246FCF703FFB168081A6FF063012DE164
:1033D000FCF73EFFA0FB0423C11701FB043100FBF7
:1033E000051C0321A2FB01080CFB0181002302FB49
:1033F00003115246FCF7EAFE3168081A0A383060B9
:10340000FCF726FFA0FB0423C11701FB043100FBDE
:1034100005134FF0050CA2FB0C0803FB0C830021E5
:1034200002FB013152460023FCF7D0FE71684018C0
:103430000A307060FCF70CFFA0FB0423C11701FBEE
:10344000043100FB051C0721A2FB01080CFB0181D4
:10345000002302FB03115246FCF7B8FEB168081ABC
:103460000A38B060FCF7F4FEA0FB0423C11701FB8F
:10347000043100FB05119018494152460023FCF726
:10348000A5FE3968081A64383860FCF7E1FEA0FB35
:103490000423C11701FB043100FB0510810041EA40
:1034A0009271900052460023FCF790FE7968401814
:1034B00064307860FCF7CCFEA0FB0423C11701FB4D
:1034C000043100FB05110626A2FB060C01FB06C118
:1034D000002302FB03115246FCF778FEB968081A74
:1034E0006438B860FCF7B4FEA0FB0423C11701FBED
:1034F000043100FB05110723A2FB030701FB037145
:10350000002602FB061152463346FCF75FFEDBF84D
:1035100000105E46081AC01ECBF80000FCF798FEAB
:10352000A0FB0423C11701FB043100FB051709218F
:10353000A2FB010C07FB01C1002302FB0311524651
:10354000FCF744FE71684018C01C7060FCF780FEF8
:10355000A0FB0423C11701FB043100FB0517032363
:10356000A2FB030C07FB03C3002107E0C0050020FA
:10357000CC050020D8050020E405002002FB013125
:1035800052460023FCF722FEB168081AC01EB06044
:10359000FCF75EFEA0FB0423C11701FB043100FB16
:1035A00005130721A2FB010703FB0171002602FBA3
:1035B000061152463346FCF709FED9F800104E4674
:1035C0004018C830C9F80000FCF742FEA0FB0423F5
:1035D000C11701FB043100FB05110323A2FB030CFF
:1035E00001FB03C1002702FB071152463B46FCF7D3
:1035F000EDFD7168081A96387060FCF729FEA0FB93
:103600000423C11701FB043100FB05130524A2FBB1
:10361000040503FB0453002102FB01315246002341
:10362000FCF7D4FDB16840184FF00A014018B060B3
:10363000BDE8F09FFDF7BABC30B5A5B0282116A8AB
:10364000FCF731FE142120A8FCF72DFE5821684616
:10365000FCF729FE092016904FF4A02017900120B6
:1036600002251990CDE91B0500041D904FF4E010D0
:103670000024CDE91E0416A8FEF72CF90F20CDE991
:1036800020056802CDE92240022120A82494FEF7FB
:1036900023F806480090280215940190039404949E
:1036A0006846FDF7CFFE25B030BD000006000300E0
:1036B0001448016841F4700101601348016841F049
:1036C000010101604168114A114041600168104ADE
:1036D00011400160016821F480210160416821F4FA
:1036E000FE014160C16A21F00F01C162016B094A0C
:1036F00011400163002181600249C00380390860E4
:103700007047000088ED00E0001002400CC07FF818
:10371000FFFFF6FECCFC00FF90F82410C90706D08E
:1037200001684A68836A22F400321A434A6090F8BA
:103730002410890706D501684A68C36A22F48032DA
:103740001A434A6090F82410490706D501684A6870
:10375000036B22F480221A434A6090F82410090770
:1037600006D501684A68436B22F400421A434A6056
:1037700090F82410C90606D501688A68836B22F484
:1037800080521A438A6090F82410890606D5016891
:103790008A68C36B22F400521A438A6090F824109E
:1037A000490611D501684A68036C22F480121A4355
:1037B0004A60016CB1F5801F06D101684A68436C0C
:1037C00022F4C0021A434A6090F82410090606D574
:1037D00001684A68806C22F4002202434A60704704
:1037E000F8B500260446C666FDF7DAFB05462068F4
:1037F00000686FF07E47000708D52B4600224FF483
:1038000000112046009700F005F960B920680068B3
:1038100040070AD52B4600224FF48001204600972E
:1038200000F0F8F808B10320F8BD202084F8690002
:1038300084F86A0084F868600020F8BD2DE9F04142
:10384000044610202369A268E6691A4363690021CF
:1038500033431A4323680D461E68654F3E401643A6
:103860001E6022685368E66823F440533343536074
:10387000236AA2691A4323689E6826F430661643B9
:103880009E605C4F22685C4B0603BA420CD11B6BF6
:1038900013F0030306D0012B4DD0022B4DD0032B88
:1038A0004CD146E0012049E0544FBA420CD11B6B89
:1038B00013F440333BD0B3423DD0B3F5003F3CD08E
:1038C000B3F5403F3AD134E04D4FBA420DD11B6BB6
:1038D00013F440232BD0B3F5802F2CD0B3F5002F59
:1038E0002BD0B3F5402F29D123E0464FBA420DD15A
:1038F0001B6B13F440131AD0B3F5801F1BD0B3F524
:10390000001F1AD0B3F5401F18D112E03E4FBA4243
:1039100014D11B6B13F4400309D0B3F5800F0AD008
:10392000B3F5000F09D0B3F5400F07D101E0002037
:1039300004E0022002E0042000E00820E7694FF4E0
:1039400000439F4227D109281ED2DFE800F0050876
:10395000131D161D1D1D1900FDF760FF01E0FDF789
:1039600075FF4100D4F8040001EB5001B1FBF0F009
:1039700081B20AE025496068F6E7FDF77FFFF0E7CE
:10398000606806EB5001F1E7012521F00F00C1F35B
:10399000420108431CE0092825D2DFE800F00508B1
:1039A0000B24102424241C00FDF738FF09E0FDF748
:1039B0004DFF06E01649606801EB50010EE0FDF78F
:1039C0005DFF0146606801EB5001B1FBF0F080B291
:1039D0002168C86008E0606803EB5001B1FBF0F0BB
:1039E00080B2D06000E001252846BDE8F0810000EB
:1039F000F369FFEF0038014000100240004400402E
:103A000000480040004C0040005000400024F400FA
:103A100000127A002DE9F041984617460E460446FA
:103A2000069D1DE0681C1BD02DB1FDF7B9FAA0EB77
:103A30000800A84214D92068016821F4D0710160FF
:103A40002068816821F001018160202084F86900EC
:103A500084F86A00002084F868000320BDE8F08143
:103A60002068C06936EA000004D00020B842D9D0EE
:103A70000020F3E70120F9E70148FDF7DEBB000075
:103A8000F8000020FEE700007CB5234C20780025DC
:103A900010B1FFF7DFFA25700020FCF7BDFF1F48CB
:103AA0000068002836D0FDF77BFAFCF7DBFB01A9A4
:103AB0006846FFF723FB9DED000AF2EE040A20EEB4
:103AC000200ADFED170ABDEEC00A10EE100A9DEDC8
:103AD000010A01B220EE200ABDEEC00A10EE100A63
:103AE000FDF750F80F4C6068FFF73EFB0E4A0F4998
:103AF0000F48FCF781FD0F48FFF77CF86068401C19
:103B00006060282802D16560FFF734F94FF47A70BD
:103B1000FDF780F87CBD000020000020240000207C
:103B20000000C84208000020D8050020CC05002075
:103B3000C0050020E405002002E008C8121F08C1EB
:103B4000002AFAD170477047002001E001C1121F1E
:103B5000002AFBD1704770B58AB00E468DF8200060
:103B60000020009001901C461546182102A8FCF781
:103B70009AFB3F20ADF808008A20ADF80A0008A89B
:103B800004900120059007200790CDF818D000215F
:103B900002A800F0A1FB002802DAFF200AB070BDE5
:103BA0009DF800000028F9D1BDF801003080BDF873
:103BB00003002880BDF8050020800020EEE770B5E6
:103BC0008AB01C468DF82000DDE90E6500208DF8D6
:103BD0002110009001908DF82220182102A8FCF7F6
:103BE00062FB3F20ADF808008A20ADF80A0008A863
:103BF00004900320059007200790CDF818D00021ED
:103C000002A800F069FB002802DAFF200AB070BDAC
:103C10009DF800000028F9D1BDF801002080BDF812
:103C200003003080BDF8050028800020EEE72DE974
:103C3000F0438FB01D46134616AA6C4692E8C003A7
:103C40008DF800008DF8011010221946A01CFCF719
:103C500011FB8DF812508DF813608DF81470CDF8AB
:103C600015808DF81990182107A8FCF71CFB3F2040
:103C7000ADF81C008620ADF81E001A20CDE90940E1
:103C80000DA80B9001200C90002107A800F024FB48
:103C9000002803DAFF200FB0BDE8F0839DF8340060
:103CA000F9E72DE9FF4192B01EACDDE91C2594E84F
:103CB0004201AC190E34282C03D9422016B0BDE8BD
:103CC000F0818DF81C00BDF84C00ADF84C0080B2BE
:103CD000ADF81D00BDF85000ADF8500080B2ADF851
:103CE0001F008DF821308DF8222007AC01278DF8B8
:103CF000235009A82A46FCF7BDFA0835E8B2324637
:103D00002654401CC5B260194146FCF7B3FABDF811
:103D10008410A819ADF88410C0B22118BDF8842011
:103D20000A80BDF88810801CADF88810C0B2211838
:103D3000BDF88820801C0A80C5B2182101A8FCF7B4
:103D4000B2FA3F20ADF804008320ADF8060011A8B8
:103D5000CDE9045000210697039401A800F0BCFAB5
:103D6000002801DAFF20A9E79DF84400A6E770B516
:103D700090B004461F2802D9422010B070BD6D4695
:103D80008DF8004001262246681CFCF773FA641C7B
:103D9000E4B2182108A8FCF786FA3F20ADF820000D
:103DA0008E20ADF822000EA80D960A95CDE90B40A5
:103DB000002108A800F090FA002801DAFF20DCE7D3
:103DC0009DF83800D9E72DE9FF4F8FB01F46DDE998
:103DD0002089BDF83C00DDF878A0ADF83C0080B249
:103DE000DDF870B0ADF81C000326134607AD8DF862
:103DF0001E10012937D0102422461946E81CFCF772
:103E000039FAE41C2F55641C05F804B0641C1D9895
:103E10002855641CE0B205F800A0401CC0B21F99F0
:103E20002954401CC0B2182105F80080401CC4B2BF
:103E30000020009001A8FCF736FA3F20ADF80400FE
:103E40004FF48270ADF806006846CDE904400021C9
:103E50000696039501A800F03FFA002805DAFF2036
:103E600013B0BDE8F08F0224C6E79DF800000028DB
:103E7000F6D1BDF80110A9F80010F1E72DE9F041E5
:103E80008CB01E46DDF84880174607AD8DF81C0043
:103E9000012826D010242246681CFCF7EBF9641C8C
:103EA00000202F55641C18212E55009001A8641C79
:103EB000FCF7F9F93F20ADF804004FF48170ADF83C
:103EC00006006846CDE904400320069003950021D2
:103ED00001A800F001FA002805DAFF200CB0BDE8C7
:103EE000F0810224D7E79DF800000028F6D1BDF844
:103EF0000110A8F80010F1E700B589B01821ADF85D
:103F00001C006846FCF7CFF93F20ADF8000040F2F6
:103F10002710ADF8020007A802900220039006A81F
:103F20000490012005900021684600F0D5F9002892
:103F300002DAFF2009B000BD9DF81800FAE700B5CD
:103F400087B018216846FCF7AEF93F20ADF80000B5
:103F500040F20110ADF8020006A80490012005907F
:103F60000021684600F0B8F9002802DAFF2007B007
:103F700000BD9DF81800FAE73FB5A7B09D1D2E992A
:103F8000802D02D942202BB030BDBDF89C00ADF889
:103F90009C0080B2ADF80000BDF8A000ADF8A00014
:103FA00080B28DF804206C46ADF802008DF8053023
:103FB0001A46A01DFCF75EF9EDB2182120A8FCF707
:103FC00072F93F20ADF880004FF48370ADF88200A5
:103FD00026A82294CDE9235001202590002120A875
:103FE00000F07AF9002801DAFF20CCE79DF898006C
:103FF000C9E700B589B08DF81C008DF81D10182197
:104000006846FCF750F93F20ADF800000F20ADF8EE
:10401000020007A802900220039006A80490012045
:1040200005900021684600F057F9002802DAFF20C9
:1040300009B000BD9DF81800FAE770B58D1CA8B056
:104040001346802D02D9422028B070BD8DF80000A3
:104050006C468DF801100A4601261946A01CFCF793
:1040600009F9EDB2182120A8FCF71DF93F20ADF8A1
:1040700080000C20ADF8820026A825962294CDE978
:104080002350002120A800F027F9002801DAFF20A2
:10409000DAE79DF89800D7E730B587B0054601A864
:1040A0000C46009005AB04AA02A903A800F048F84A
:1040B00010F0FF0014D1BDF80810090A2970BDF8EE
:1040C000081009022180BDF80420C2F3031241EA5E
:1040D00002112180BDF8042002F00F02114321805B
:1040E00007B030BD70B5134D00B1E86100F0B8F90C
:1040F000114800F027FA1048083000F023FA0F4E5C
:10410000002400BFC4EBC40000EB800006EB80017C
:10411000094800F026FA641CE4B2052CF2D32968A1
:1041200009B100208847A868002802D0BDE8704087
:10413000004770BD8009002054000020C406002004
:104140002DE9F04389B000240F468046DDF8409009
:104150001D46164600940194182103A80294FCF70A
:10416000A2F80420ADF80C000120ADF80E0068465E
:10417000CDE90640092008900594002103A800F02D
:10418000ABF8002803DAFF2009B0BDE8F0839DF802
:1041900000000028F8D19DF8011088F80010BDF843
:1041A000020038809DF804003070BDF805002880BA
:1041B000BDF80710A9F800100020E5E730B58FB072
:1041C0000D46044620216846FCF76DF88DF8004046
:1041D0001F2C00D91F2422466C462946601CFCF780
:1041E00049F8182108A8FCF75EF80820ADF820006F
:1041F0000920ADF822002020CDE90A400EA80C903D
:1042000001200D90002108A800F066F8002802DACD
:10421000FF200FB030BD9DF83800FAE738B5002018
:1042200004460090154800F0A8F910B1012420467A
:1042300038BD6946114800F0ACF91148C268002A3F
:10424000F5D00098802108309047009910F0FF00C9
:104250000FD081F888000B7A01F10802042B08D1F5
:104260009278C01E824204D10448083000F079F9E7
:10427000DDE7024800F069F9D9E7000054000020AA
:1042800080090020054902680A60C268CA600269A4
:104290000A6182698A6180688860704780090020AD
:1042A00000B587B018216846FBF7FDFF0320ADF885
:1042B0000000ADF8020006A804900120059000213E
:1042C000684600F009F8002802DAFF2007B000BDB8
:1042D0009DF81800FAE700002DE9F0410F4604466A
:1042E00001884088A8B061F39F2085B24FF0000894
:1042F00026A8CDF8908000F025F908E069465648D8
:1043000000F047F954480099083800F02AF952485B
:10431000083800F009F90228F0DB22886088267B43
:1043200062F39F20A168ADF8840001208DF88660BB
:104330008DF80000BDF88400ADF801008DF8036031
:10434000324601A8FBF796FF4448026912B1311DBD
:10435000684690471FB1002028B0BDE8F0814FF4B7
:104360007A7600BFFCF71CFE4FEA0007FCF718FE48
:10437000C01BB04262D8384800F0FFF80028F5D1E1
:1043800024A9354800F005F9249800F10803017AC2
:1043900004293ED190F888205878D91CD21E0E28C6
:1043A00014D00F2804D0102848D03E2831D118E06E
:1043B0004888A84242D160680F2802D00878A8BB7C
:1043C00027E0606909E06261206916E0B1F8010048
:1043D000A84233D1C91C6069D21E9042F3D802466C
:1043E000F1E708786368984213D16069521E9042E1
:1043F00000D802466261491C2069FBF73BFF164862
:104400002499083800F0A1F826A9134800F020F9F3
:10441000A1E71148083800F0B0F840B10E4800F0AC
:10442000ACF820B10C482499083802E006E026A830
:10443000249900F096F8CDF8908093E7249919B16B
:104440000548083800F081F826A9034800F000F973
:104450004FF0FF3080E700005C0000208009002062
:1044600000B587B0114800901148019011480490A0
:104470001148039011480290114806906846FFF7D2
:1044800001FF4FF0C0610F48FCF7D6FB0E4A002138
:104490000C48FCF7E9FB002211460620FCF7E2FD80
:1044A0000620FCF7D3FD07B000BD000091230008F3
:1044B0006D230008A1240008F523000871240008DA
:1044C000BD09000800000020CD44000810B54FF0E1
:1044D000904401212046FCF755FD012804D100201D
:1044E000FFF79CFE0028F4D010BD000038B5002076
:1044F0000B4C00900DE069460A4800F04AF8E1696B
:1045000011B100980830884706480099083800F033
:1045100028F8044800F031F80028ECD038BD00003D
:10452000800900205C00002003460020EFF310818A
:1045300072B61A6801E01268401C9A42FBD181F3FE
:1045400010887047006040607047EFF3108272B6C9
:104550000368C1E900300160086882F31088416097
:104560007047EFF3108272B6086043684B60416099
:10457000486882F3108801607047EFF3108172B6CB
:104580000268824201D1012000E0002081F31088FE
:10459000704730B50D46EFF3108472B6016829609C
:1045A000006800F008F8296800200860296884F392
:1045B0001088486030BDEFF3108172B6D0E9002357
:1045C0001A6005C881F310884260704730B50D4607
:1045D000EFF3108472B6416829604068FFF7EBFF83
:1045E000296800200860296884F31088486030BD7D
:1045F000FCF7E4FCFFF720F8FEF732F81248114907
:104600000024C0E900147F218160FF21C0E9031468
:1046100044618461FDF72AFCFEF706F90A480B495C
:104620009030016008214160022181608461C46191
:1046300004620161FCF779FEFDF77CFFFEF708F8E4
:10464000FCE700000028004068000020005C0040FB
:1046500038B50C46054607E069462046FFF7B6FF29
:1046600028460099FFF771FF2046FFF786FF0028D4
:10467000F2D038BD421C0078042819D110780528E2
:104680000CD03E280CD0FF2812D132F8020FA0F532
:10469000406014380CD19088FEF7FABAFCF7B0BA33
:1046A0009178901C012903D14188801DFCF79EBAA6
:1046B000704700002800800000200000790B0008EF
:1046C0000F0000000D00000602030405060708099C
:1046D0000A0B0C0D0E0F101001020304050607084B
:1046E000090A0B0C0D0E0F10000000000000000066
:1046F0000102030406070809000000000102030488
:10470000204700080000002068000000383B000837
:104710008847000868000020380D0000483B00086A
:104720000000000000000000000100000000000088
:104730000000000000000000000000000000000079
:104740000100000000000000000000000000000068
:104750000004004800080048004400400D00000626
:104760000000000001000000100000000000000038
:1047700000127A00000000000000000000000000AD
:08478000000000000000000031
:040000050800019559
:00000001FF
