:020000040800F2
:10000000580D0020A90100087B27000811240008D2
:10001000792700085B0A0008213200080000000070
:10002000000000000000000000000000AB2D0008F0
:100030005D0A000800000000172B0008AD2D000825
:10004000C3010008C3010008C3010008C301000880
:10005000C3010008C3010008C3010008C301000870
:10006000C3010008C3010008C3010008C301000860
:10007000C3010008C3010008C3010008C301000850
:10008000C3010008C3010008C3010008C301000840
:1000900015320008C3010008C3010008C3010008AD
:1000A000C3010008C3010008C3010008C301000820
:1000B000C3010008C3010008C3010008C301000810
:1000C000C3010008C3010008C3010008C301000800
:1000D000C3010008C3010008C3010008C3010008F0
:1000E000610A0008C3010008C3010008C301000839
:1000F000C3010008C3010008C3010008C3010008D0
:10010000C30100080000000000000000C301000857
:10011000C3010008C3010008C3010008C3010008AF
:10012000C3010008C3010008C3010008C30100089F
:10013000C3010008C3010008000000000000000027
:10014000C3010008C3010008C3010008000000004B
:10015000000000000000000000000000000000009F
:10016000C3010008C3010008C3010008C30100085F
:10017000C3010008C3010008C3010008C30100084F
:10018000C3010008C30100080000000000000000D7
:10019000C3010008DFF80CD000F0A6F800480047C3
:1001A000DD3D0008580D00200648804706480047FE
:1001B000FEE7FEE7FEE7FEE7FEE7FEE7FEE7FEE717
:1001C000FEE7FEE7292E0008950100082DE9F05F03
:1001D0000546002092469B468846064681464024B6
:1001E0001BE0284641464746224600F020F8534689
:1001F0005A46C01A914110D311461846224600F0C3
:1002000064F82D1A67EB01084F46224601200021B1
:1002100000F05BF817EB00094E41201EA4F1010429
:10022000DFDC484631462A464346BDE8F09F202A97
:1002300004DB203A21FA02F00021704721FA02F390
:10024000D040C2F120029140084319467047000097
:100250000649074A0868504343F2390210440860CF
:1002600040087047014908607047000060000020A6
:100270006D4EC64140EA01039B0703D009E008C95F
:10028000121F08C0042AFAD203E011F8013B00F85B
:10029000013B521EF9D27047D2B201E000F8012BA7
:1002A000491EFBD270470022F6E710B513460A46F6
:1002B00004461946FFF7F0FF204610BD421C10F817
:1002C000011B0029FBD1801A7047202A04DB203A49
:1002D00000FA02F1002070479140C2F1200320FA99
:1002E00003F3194390407047064C074D06E0E06861
:1002F00040F0010394E8070098471034AC42F6D36D
:10030000FFF74CFF2C3F00084C3F00080EB501786A
:100310008DF8041001880623090A8DF8051001796B
:100320008DF8061081880022090A8DF80710017ADD
:100330008DF808100089000A8DF8090001A80090C6
:1003400004480189808803F00BFA002800D0472078
:100350000EBD00000C0000202DE9F04F8BB00224F0
:100360008DF81C404FF000098DF81D90B4208DF8D9
:100370001E009A208DF81F004FF0E10A8DF820A092
:1003800011208DF821003A208DF82200CF208DF821
:10039000230080208DF824006E208DF82500362063
:1003A0001B258DF826008DF81850C5268DF819608C
:1003B000D52749488DF81A704FF0A50800908DF8A0
:1003C0001B808DF827400723012206A9022003F095
:1003D00049F900287CD18DF818508DF81C408DF813
:1003E00019608DF81A70A5208DF81D908DF81B00EE
:1003F000FC20A3468DF81E004C468F208DF820A0CF
:100400008DF81F004FF011098DF821904A208DF8CA
:100410002200A0208DF8240078208DF825003E20B1
:100420008DF82600E2208DF827002B491020891C2A
:10043000D046CDE904414FF0CF0A8DF823A0CDE995
:100440000240CDE9000424480123001F06AA02212E
:10045000808803F03AF8D8BB8DF818508DF81960F1
:100460008DF81A70A5208DF81B008DF81CB08DF842
:100470001D4036208DF81E00AC208DF81F008DF831
:1004800020808DF821904B208DF8220080208DF85F
:1004900024008DF825500A208DF8260034208DF890
:1004A00027000D498DF823A010200422091DCDE955
:1004B0000220CDE904411220CDE9000406480623BC
:1004C000001F06AA0221808802F0FFFF002800D04A
:1004D00047200BB0BDE8F08F100000202DE9F04F51
:1004E00091B0E2218DF82C1011218DF82D1077217B
:1004F0008DF82E10E4214FF0020A8DF82F108DF8A0
:1005000028A04FF0000B40218DF829B0D0208DF8A5
:1005100030108DF82A001A2182208DF831108DF8C4
:100520002B008DF832001B2642208DF82460C52751
:100530008DF833008DF82570D524A4488DF8264019
:10054000A52500908DF827500A23012209A9022031
:1005500003F088F800287CD18DF824608DF828A05D
:100560008DF825708DF826408DF829B0E3208DF8A0
:100570002A00A9208DF827508DF82B005D464FF0FA
:10058000E20B8DF82CB011208DF82D0077208DF81E
:100590002E0020208DF8300055208DF83100544673
:1005A0002E208DF83200894AA3204FF0E40A8DF8FE
:1005B0003300921C00948DF82FA010200592CDE9F5
:1005C00003050421CDE90151804802230A3809AA14
:1005D0001946408902F079FF0028BCD10E208DF821
:1005E0003400FF208DF8350042F22F70ADF8360050
:1005F00000208DF83800ADF8390042F60411ADF84E
:100600003C101022CDE9050210A9CDE907010DAB80
:100610000721CDE90113012200916C4DCDE90302C0
:100620000A3D0FABA989688902F0AAFF002892D180
:100630001B208DF82400C5208DF82500D5208DF8CD
:100640002600A5208DF8270002208DF82800002420
:1006500000E097E08DF829400B218DF82A108421C5
:100660008DF82B10E2218DF82C1011218DF82D1012
:100670008B218DF82E10E4218DF82F1080218DF81C
:100680003010C4218DF8311020218DF83210CD2189
:100690008DF8331005F10E01CDE904411026042731
:1006A00003968DE89100032309AA0221688902F0CC
:1006B0000CFF002866D10F208DF83400FB208DF848
:1006C00035004FF41E50ADF836008DF83840ADF8C7
:1006D000394042F60418ADF83C80CDE9054610A833
:1006E000CDE90740B2460DF1340B0726CDE9016B89
:1006F0004FF001090096CDE903490FAB4A46E9895D
:10070000688902F03DFFE8BB1B208DF82400C5205E
:100710008DF82500D5218DF82610A5218DF82710FC
:1007200002218DF828108DF8294073228DF82A2097
:10073000A0228DF82B20E2228DF82C2011228DF89A
:100740002D208C228DF82E20E4228DF82F2060227F
:100750008DF830200B228DF8312005F11002CDE903
:1007600004428DF832008DF833908DE89204022314
:1007700009AA1946688902F0A8FE18B906208DF862
:10078000340000E01EE0FF208DF835004FF41C50CF
:10079000ADF836008DF83840ADF83940ADF83C8002
:1007A000CDE9054A10A8CDE90740CDE9016B0096D7
:1007B000CDE903490FAB0122298A688902F0E0FEE6
:1007C000002800D0472011B0BDE8F08F16000020AF
:1007D00030B5002487B0012801D9A41E2EE01949A4
:1007E000C0EBC00251F82010174800EB0215296039
:1007F0001649C86940F40030C861C86900F4003087
:100800000590486940F4003048614869694600F441
:10081000003005900C2000900220019000200290F2
:1008200003200390072004904FF0904000F00CFA52
:10083000284601F073FF08B16FF0030407B02046AB
:1008400030BD0000440000200C06002000100240D3
:1008500000F0EEBA70B50446114886B0416941F423
:100860008021416140690F4E00F48020059036F8E8
:10087000140000900120019002900B4D0320039082
:1008800055F82400694600F0DFF936F8141055F8E1
:100890002400002200F0C7FA06B0002070BD00005E
:1008A000001002401A3F00083C000020054910B526
:1008B000054A31F8101052F8200000F0B0FA00207C
:1008C00010BD00001A3F00083C0000200149012033
:1008D0008870704708000020064910B5064A31F8B4
:1008E000101052F8200000F095FA08B1002010BD59
:1008F000012010BD1C3F000840000020F0B5044658
:10090000254887B00025426942F4002242614069CF
:1009100000F400200590214830F8140000900220D7
:100920000290032003901E4850F8240091B11D4905
:100930000191694600F088F918480C3050F82410ED
:100940001748083000EBC400064600F0BDF82F1F22
:1009500078B905E000210191694600F075F917E0CA
:100960000E480021001D50F82420304600F0C4F845
:1009700008B13D460CE0094800220830A0F10C0601
:1009800050F82410305700F0C9FA305700F0BAFA86
:1009900007B02846F0BD0000001002401C3F0008D0
:1009A000400000200000111010B51D4986B01B4802
:1009B00008601C4800240168491C0160012929D1F4
:1009C000174801F034FA28BB1749886940F4805071
:1009D0008861886900F480500590486940F40030CF
:1009E00048614869694600F400300590E0200090B5
:1009F0000220019000200290032003900520049023
:100A00004FF0904000F020F9054801F065FE08B174
:100A10006FF0070406B0204610BD00000030014012
:100A2000A8050020240000200010024038B54FF433
:100A30008053009313460A4601460024034801F000
:100A400055FA00B1A41F204638BD0000A8050020BB
:100A500010B50020FFF73AFF10BDFEE77047000019
:100A600010B5044800F036F8BDE81040024800F028
:100A700031B8000048000020000000200348012297
:100A8000426141800520401EFDD170470C000020CE
:100A9000034800214161012202704170704700004B
:100AA0000C00002070B5044600F0C2F90546601C39
:100AB00002D004480078044400F0BAF9401BA04278
:100AC000FAD370BD2800002010B1016000207047EB
:100AD00001207047017801F01F0201219140054A71
:100AE00013680B4204D011604068002800D0004712
:100AF00070470000140401400346002009B10120A2
:100B000070475A60704700002DE9F04F002301271D
:100B10000F24DFF814A181E007FA03F616EA0102B8
:100B20007BD005684FEA43084FF0030C0CFA08FC31
:100B300025EA0C050560DD0800EB8508C346D8F8FA
:100B400020905D074FEAD56804FA08F529EA0509FF
:100B5000CBF82090856825EA0C0585604568B5438B
:100B60004560C56825EA0C05C56023F0030606EB61
:100B70000A05D5F808C09E07360F04FA06F909EAF7
:100B80000C08B0F1904F06D0DFF8A0C0604505D149
:100B90004FF0010C27E04FF0000C24E0DFF890C08C
:100BA000604502D14FF0020C1DE0DFF888C06045BF
:100BB00002D14FF0030C16E0DFF87CC0604502D193
:100BC0004FF0040C0FE0DFF874C0604502D14FF025
:100BD000050C08E0DFF868C0604502D14FF0060C54
:100BE00001E04FF0070C0CFA06FCC44515D1D5F80E
:100BF00008C02CEA090CC5F808C0124E35689543A8
:100C00003560361D356895433560351D2E68964331
:100C10002E602D1D2E6896432E605B1C31FA03F268
:100C20007FF47AAFBDE8F08F000001400004004877
:100C300000080048000C004800100048001400485C
:100C400000180048000401402DE9F84FDFF8A0B17A
:100C5000002301274FF0030A4FF00F090BF1040E98
:100C6000BEE000BF07FA03F63440220072D04C68A1
:100C7000022C01D0122C12D1DC0800EB840CDCF821
:100C800020405D07ED0E09FA05F824EA0804D1F8C2
:100C9000108008FA05F848EA0408CCF82080D0F85B
:100CA00000805D0091F804C00AFA05F40CF0030C12
:100CB00028EA04080CFA05FC4CEA080CC0F800C04D
:100CC000D1F804C0BCF1010F08D0BCF1020F05D06F
:100CD000BCF1110F02D0BCF1120F16D1D0F808C030
:100CE000D1F80C802CEA040C08FA05F848EA0C0844
:100CF000C0F80880D0F804C02CEA060C0E79C6F3C0
:100D000000169E4046EA0C064660C668A6438C68FC
:100D1000AC403443C4604C68E40060D5354CA569F0
:100D200045F00105A561A46923F0030504F0010461
:100D30000094314C2E19B4689D074FEA157C09FACE
:100D40000CF5AC43B0F1904F05D02C4DA84204D126
:100D500001251CE043E0002519E0294DA84201D1FE
:100D6000022514E0274DA84201D103250FE0264DAE
:100D7000A84201D104250AE0244DA84201D105254D
:100D800005E0234DA84201D1062500E0072505FA1C
:100D90000CF52543B560DBF800405D464E68944392
:100DA000F60300D514432C60DEF8004075464E680B
:100DB0009443B60300D514432C600D4D08352C68C0
:100DC0004E689443F60200D514432C60084D0C3550
:100DD0002C684E689443B60200D514432C605B1C0B
:100DE0000A681446DA407FF43DAFBDE8F88F000092
:100DF00000040140001002400000014000040048CF
:100E000000080048000C004800100048001400488A
:100E1000001800480069084000D00120704742696E
:100E20004A40426170470AB18161704781627047F0
:100E3000014880687047000028000020074908B575
:100E40008A6942F001028A61896901F00101009119
:100E500003490A6802430A6008BD0000001002400E
:100E600000000140024881680278114481607047A7
:100E700028000020074810B5016841F0100101600A
:100E8000032000F06BF8002000F006F800F024F8D2
:100E9000002010BD0020024070B50D4D04464FF4F7
:100EA0007A712878B1FBF0F00A490968B1FBF0F0DB
:100EB00001F03BF948B9102C07D200222146501E00
:100EC00000F02CF800206C6070BD012070BD0000A7
:100ED0002800002034000020094808B5816941F04D
:100EE00001018161816901F001010091C16941F055
:100EF0008051C161C06900F08050009008BD0000C1
:100F00000010024000F01F020121914040098000C2
:100F100000F1E020C0F8001170470000F0B40E4B63
:100F20001B680C46C3F30223C3F10705042D00D947
:100F30000425191D072901D2002300E0DB1E01262C
:100F400006FA05F1491E214099409E40761E164042
:100F50003143F0BC01F012BC0CED00E0064900F09A
:100F6000070208684FF6FF03184040EA0220034AD0
:100F700010430860704700000CED00E00000FA0527
:100F80007047704770B501F07F05C5EBC50400EBF5
:100F900084041E46C4E977230022C4F8E42184F8BF
:100FA000CD2184F8CC51D4F8D85104F5E674AB4285
:100FB00001D92B46F21A6261056840F2064201F03F
:100FC0007F0102EBC101B5F850604FF6FF72354466
:100FD0000D443E2B20D9C3F34F11DB0619D000BFBF
:100FE00002EA812141F4004102E000BF02EA8121CE
:100FF00029802278016831F822004BF68F7318405F
:1010000080F4405048F28003184321F82200002069
:1010100070BD491E89B2E3E7C3F34F01DB07E5D09A
:10102000491C89B2E2E770B5064601F07F00C0EBCB
:10103000C00106EB810400212164C4E90E230122D2
:1010400084F8292004F8280F1D46E068834203D95C
:101050000546181A606100E06161A07A38B1217814
:10106000306830F82110490612D5228911E0ABB260
:10107000A2882169306801F03BFD3068B0F850105B
:1010800040F202420844217802EBC101455220E0BF
:10109000E288ABB2216901F02BFD607848F68F72CF
:1010A00010B101280BD014E02078316831F82030DD
:1010B000134048F2C002134321F8203009E02178A0
:1010C000336833F8210010404CF28002104323F8BB
:1010D00021002278316831F8220048F6BF731840A9
:1010E00080F0300048F28003184321F822000020ED
:1010F00070BD10B504460068B0F84400000402D585
:10110000204601F04BFB2068B0F8441049050AD591
:101110004FF6FF31A0F84410204600F0D3F800212C
:10112000204600F0D2F82068B0F84410490403D5F6
:101130004BF6FF71A0F844102068B0F84410890401
:1011400003D54DF6FF71A0F844102068B0F84410A4
:10115000C90412D530F8401F21F004010180206835
:1011600030F8401F21F008010180204600F0ABF864
:1011700021684EF6FF70A1F844002068B0F84410D2
:10118000090518D530F8401F41F008010180216899
:101190004FF2FF70A1F84400206830F8401F41F082
:1011A000040101802068B0F84400C043C00402D5A7
:1011B000204600F0A1F82068B0F84410890506D553
:1011C0004FF6FF51A0F84410204600F07DF820684B
:1011D000B0F84410C90503D54FF6FF61A0F84410DC
:1011E00010BD70B504004FF0000604D094F87103F0
:1011F000002510B106E0012070BD84F87053204630
:1012000000F042F8032084F8710301220CE0C6EBE1
:10121000C60004EB800080F8292000F8286F761CB7
:10122000C570C560056145616068B042EFD80020B7
:1012300010E0C0EBC00104EB810181F8CD5181F8D1
:10124000CC0181F8CF51C1F8D851C1F8DC51401C14
:10125000C1F8E05161688142EBD82068A0F84020D5
:101260002068A0F840502068A0F844502068A0F8FA
:10127000505021684FF43F40A1F8400084F82450BA
:1012800084F87123002070BD08B500680B498842BE
:1012900012D10B48C16941F40001C161C06900224B
:1012A00000F40000009011461420FFF737FEBDE85F
:1012B00008401420FFF726BE08BD0000005C004077
:1012C0000010024070477047704790F87023012A61
:1012D0000AD0012280F8702341B180F82410002147
:1012E00080F870130846704702207047026880211A
:1012F000A2F84C10F3E77047704700002DE9F84F53
:10130000044600689F4DC0036FD5E8690026C00001
:1013100008D4E86940F08050E861E869012600F0EF
:101320008050009098480168C90512D40168804631
:1013300041F480710160FFF77BFD074605E000BFC7
:10134000FFF776FDC01B642835D8D8F80000C0052B
:10135000F6D5286A10F4407053D0A18801F440718A
:1013600081424ED0286A4FF4803191FAA1F2B2FA4C
:1013700082F29700854A4FF00108174420F440702C
:10138000C7F8008491FAA1F1B1FA81F102EB810171
:101390000023C1F800342862C00732D0FFF748FDAF
:1013A000074641F2883A4FF0020907E0FFF740FD97
:1013B000C11B514502D90320BDE8F88F99FAA9F164
:1013C000B1FA81F141F040024846B8EB521F01D119
:1013D0002A680CE090FAA0F2B2FA82F242F04002DF
:1013E000B0EB521F02D12A6A01E015E06A6A99FA4D
:1013F000A9F0B0FA80F000F01F0008FA00F10A42EC
:10140000D4D0286A616820F44070084328621EB175
:10141000E86920F08050E8612078C00705D0286B8B
:10142000A16820F00300084328632078800705D5D1
:10143000286BE16820F44030084328632078400797
:1014400005D5286B216920F44020084328632078C3
:10145000800605D5286BE16920F010000843286359
:101460002068800305D56868616D20F4800008431A
:1014700068602078400605D5286B216A20F020009E
:10148000084328632068400305D5286B616A20F073
:101490004000084328632078000705D5286B616960
:1014A00020F44010084328632078C00605D5286B37
:1014B000A16920F44000084328632088800505D5F1
:1014C0006868216B20F400000843686020780006FB
:1014D00005D5E86AA16A20F4F8700843E86220881C
:1014E000C00505D5E86AE16A20F478500843E8624F
:1014F0002088C00405D5286B616B20F480700843F8
:1015000028632088800405D5286B216C20F40070A6
:10151000084328632068C00205D5286BA16B20F022
:101520008070084328632068800205D5286BE16B32
:1015300020F00070084328632068400205D5286B1E
:10154000616C20F48060084328632068000205D5A0
:10155000286BA16C20F40060084328632068C00158
:1015600005D5286BE16C20F40050084328632068FF
:10157000800105D5286B216D20F4004008432863C5
:10158000002019E7001002400070004000004242B5
:101590002DE9F0470F46050069D04A4E306800F04B
:1015A0000700B84209D2306820F0070038433060A5
:1015B000306800F00700B84259D12878424C8007C3
:1015C00005D56068A96820F0F000084360602878BD
:1015D000C0073DD06968012001290DD0022923D020
:1015E0005FF0020393FAA3F2B2FA82F242F0200211
:1015F000520904D0226803E04FF40033F2E7626A34
:1016000093FAA3F3B3FA83F303F01F039840024263
:101610002DD0606820F0030008436060FFF708FCED
:10162000804641F288390CE04FF00073DAE700BFE2
:10163000FFF7FEFBA0EB0801494502D90320BDE8F6
:10164000F0876068696800F00C00B0EB810FEFD1A3
:10165000306800F00700B8420BD9306820F007006E
:1016600038433060306800F00700B84201D00120F4
:10167000E5E72878400705D56068E96820F4E06070
:10168000084360602878000706D56068296920F45F
:10169000605040EAC100606000F04CF86168F022E0
:1016A00092FAA2F201F0F001B2FA82F2D140074AB6
:1016B000515CC840064908600020FFF7EDFB0020A0
:1016C000BDE700000020024000100240FE3E00087E
:1016D0003400002008480949006849684FF4E06276
:1016E00092FAA2F201F4E061B2FA82F2D140044A25
:1016F000515CC840704700003400002000100240D8
:101700000E3F000808480949006849684FF46052D4
:1017100092FAA2F201F46051B2FA82F2D140044A84
:10172000515CC840704700003400002000100240A7
:101730000E3F0008124B10B55968124801F00C0218
:10174000042A1CD0082A1AD14FF4701494FAA4F475
:1017500001F47012B4FA84F4E2400B4CDB6AA25C30
:101760000F2494FAA4F403F00F03B4FA84F4E340D2
:10177000054CC9031034E35CB0FBF3F0504310BDDB
:101780000010024000127A00DE3E00082DE9F84FFA
:1017900004007DD02078FA4DC0074FF0010637D005
:1017A00068687704C0F38100012819D06868C0F325
:1017B0008100022804D16868C0F3C13002280FD02C
:1017C0006068B0F5803F24D010B1B0F5A02F2AD0CA
:1017D000286820F480302860286820F480201BE0EE
:1017E00097FAA7F0B0FA80F040F02000400901D04D
:1017F000286800E0686A97FAA7F1B1FA81F101F070
:101800001F0106FA01F108424ED060680028C0D0DE
:101810004AE0286840F480302860606820B3FFF711
:1018200007FB80460AE0286840F480202860F0E743
:10183000FFF7FEFAA0EB0800642873D897FAA7F028
:10184000B0FA80F040F02000400901D0286800E0A4
:10185000686A97FAA7F1B1FA81F101F01F0106FA5F
:1018600001F10842E4D01FE0FFF7E2FA804605E00C
:10187000FFF7DEFAA0EB08006428DED897FAA7F09D
:10188000B0FA80F040F02000400902D0286801E062
:10189000B9E0686A97FAA7F1B1FA81F101F01F0186
:1018A00006FA01F10842E3D12078DFF8D8828007F8
:1018B0004FF0000A4FF002075DD568684FF0F80B53
:1018C00010F00C0F15D06868C0F38100022804D115
:1018D0006868C0F3C13001280BD0E068A0B396FA65
:1018E000A6F0B0FA80F048F82060FFF7A1FA814630
:1018F00020E097FAA7F0B0FA80F040F0200040090D
:1019000001D0286800E0686A97FAA7F1B1FA81F17E
:1019100001F01F0106FA01F1084221D0E068012818
:1019200071D11DE056E100BFFFF782FAA0EB09007C
:101930000228A2D897FAA7F0B0FA80F040F0200071
:10194000400902D0286801E016E0686A97FAA7F11A
:10195000B1FA81F101F01F0106FA01F10842E3D06A
:1019600028689BFAABF22169B2FA82F220F0F80003
:1019700091400843286024E096FAA6F1B1FA81F17B
:1019800048F821A0FFF754FA814605E0FFF750FA26
:10199000A0EB09000228CCD897FAA7F0B0FA80F0A3
:1019A00040F02000400901D0286800E0686A97FAFA
:1019B000A7F1B1FA81F101F01F0106FA01F1084225
:1019C000E4D1207800076AD56069A0B396FAA6F042
:1019D000B0FA80F008EB8000C0F88064FFF728FAC6
:1019E000814605E0FFF724FAA0EB09000228A0D801
:1019F00097FAA7F0B0FA80F040F06000B6EB501F05
:101A000002D128680CE073E197FAA7F0B0FA80F0F1
:101A100040F06000B7EB501F01D1286A00E0686A0F
:101A200097FAA7F1B1FA81F101F01F0106FA01F26C
:101A30001042D7D033E0FFE796FAA6F0B0FA80F074
:101A400008EB8000C0F880A4FFF7F2F9814605E0BA
:101A5000FFF7EEF9A0EB090002289CD897FAA7F04F
:101A6000B0FA80F040F06000B6EB501F01D128685A
:101A70000BE097FAA7F0B0FA80F040F06000B7EB07
:101A8000501F01D1286A00E0686A97FAA7F1B1FAFD
:101A900081F101F01F0106FA01F21042D8D120783D
:101AA000400774D5E8694FF00009C00009D4E8691F
:101AB00040F08050E861E8694FF0010900F0805083
:101AC000009031480168C90512D4016841F4807161
:101AD0000160FFF7ADF9834606E000BFFFF7A8F904
:101AE000A0EB0B00642875D827480068C005F5D521
:101AF000A06801280AD008B1052811D0286A20F072
:101B000001002862286A20F0040002E0286A40F000
:101B100001002862A068C8B3FFF78AF983460DE088
:101B2000286A40F004002862F0E700BFFFF780F960
:101B3000A0EB0B0141F2883081424BD897FAA7F015
:101B4000B0FA80F040F04000B6EB501F01D1286899
:101B50000BE097FAA7F0B0FA80F040F04000B7EB46
:101B6000501F01D1286A00E0686A97FAA7F1B1FA1C
:101B700081F101F01F0106FA01F21042D6D035E0E2
:101B800000100240000042420070004000E034E0DB
:101B9000FFF74EF9834607E0FFF74AF9A0EB0B0188
:101BA00041F28830814215D897FAA7F0B0FA80F058
:101BB00040F04000B6EB501F01D128680CE097FAC6
:101BC000A7F0B0FA80F040F04000B7EB501F02D110
:101BD000286A01E089E0686A97FAA7F1B1FA81F111
:101BE00001F01F0106FA01F21042D5D1B9F1000F40
:101BF00003D0E86920F08050E861A06980B369688B
:101C0000C1F38101022973D04FF080714F00022887
:101C1000524609D091FAA1F0B0FA80F048F820209D
:101C2000FFF706F9044664E091FAA1F0B0FA80F0FB
:101C30008A46C14648F82020FFF7FAF8804605E0BA
:101C4000FFF7F6F8A0EB080002284ED897FAA7F0A5
:101C5000B0FA80F040F02000400902D0286801E08E
:101C60005CE0686A97FAA7F1B1FA81F101F01F010F
:101C700006FA01F10842E3D1E86A616A20F00F0038
:101C80000843E862D4E907100843696821F4761133
:101C9000084368609AFAAAF0B0FA80F049F8206028
:101CA000FFF7C6F8044604E0FFF7C2F8001B02285D
:101CB0001BD897FAA7F0B0FA80F040F02000400956
:101CC00001D0286800E0686A97FAA7F1B1FA81F1BB
:101CD00001F01F0106FA01F10842E5D01EE000BF45
:101CE000FFF7A6F8001B022803D90320BDE8F88FF0
:101CF00016E097FAA7F0B0FA80F040F02000400913
:101D000001D0286800E0686A97FAA7F1B1FA81F17A
:101D100001F01F0106FA01F10842E1D10020E5E7D8
:101D20000120E3E770B5040002D0607F10B106E047
:101D3000012070BD00202077204600F049F80220E5
:101D400060772168CA204862216853204862204693
:101D500000F0F4FEFF25042618BB206881681B4AAA
:101D6000114081602168886862681043D4E90423C7
:101D70001A43104388602168E0680861206801699F
:101D8000228941EA024101612068C16821F0800195
:101D9000C16020688068800607D4204600F02CF8D7
:101DA00018B1206845626677C2E72068016C21F4AB
:101DB000802101642068016CA269114301642068DC
:101DC000456201206077002070BD0000BFFF8FFFDB
:101DD0000068074988420AD10120C10391FAA1F1A4
:101DE000044AB1FA81F102EB8101C1F800047047A5
:101DF000002800400000424270B504460068C168F7
:101E000021F0A001C160FFF713F805464FF47A7680
:101E100007E000BFFFF70CF8401BB04201D90320D8
:101E200070BD2068C0688006F4D5002070BD90F8B1
:101E30005D0070472DE9F041040005D00025A56242
:101E400094F85D0018B107E00120BDE8F08184F846
:101E50005C50204600F049F8022384F85D30206889
:101E6000016821F040010160E0684FF4E066B04293
:101E700001D9002101E04FF48051B0F5706F02D01C
:101E8000B04200D0A562276B012227B9B04201D928
:101E9000236300E02263D4E901031843D4E9043644
:101EA00033431843238B03F400731843E369184347
:101EB000236A1843A36A184323681860636B606A37
:101EC000A66918430427E36807EA16463343184314
:101ED0000843216848602068C16921F40061C1613C
:101EE000256684F85D200020AFE770472DE9F05F9C
:101EF000044690F85C0000260A9F994692460D46DB
:101F00004FF0010801280ED0012084F85C00FEF794
:101F10008FFF834694F85D00616801280CD0B1F50D
:101F2000827F07D102E00220BDE8F09FA16809B9D5
:101F3000042801D00226F0E0002D79D0BAF1000F7C
:101F4000FBD0B9F1000FF8D094F85D00042802D05E
:101F5000052084F85D0000202066C4F840A0A4F8A5
:101F60004690A4F84490A563A4F83E90A4F83C9051
:101F7000E0642065E0684FF4E061884203D8B4F87B
:101F80004600012804D92068426822F4805203E008
:101F90002068426842F4805242602068026852061B
:101FA00003D4026842F040020260E0688842606840
:101FB0003FD910B1E08F012832D1216835F8020BEA
:101FC000C860E08F401EE0872AE000BFB8F1000F34
:101FD0000DD0E08F58B120688168890707D535F8A2
:101FE000021BC160E08F401EE0874FF00008B4F88C
:101FF000460068B120688168C90709D0C0682AF81E
:10200000020BB4F84600401EA4F846004FF0010849
:10201000781C05D0FEF70CFFA0EB0B00B84268D28D
:10202000E08F0028D2D1B4F846000028CED169E074
:1020300072E010B1E08F01285DD1E08F012806D950
:10204000216835F8020BC860E08F801E05E020682B
:1020500015F8011B0173E08F401EE0874BE000BFC5
:10206000B8F1000F16D0E08FA0B120688168890711
:1020700010D5E18F012905D935F8021BC160E08F29
:10208000801E04E015F8011B0173E08F401EE087FD
:102090004FF00008B4F8460018B320688168C907FB
:1020A0001FD0B4F84610012911D9C0682AF8020BD4
:1020B000B4F84600801EA4F84600B4F84600012893
:1020C0000DD82068416841F48051416007E0017BF0
:1020D0000AF8011BB4F84600401EA4F846004FF071
:1020E0000108781C07D0FEF7A3FEA0EB0B00B84256
:1020F00001D3032611E0E08F0028B1D1B4F84600E7
:102100000028ADD15A463946204600F091FD08B16D
:1021100020202066206E00B10126012084F85D0099
:10212000002084F85C003046FEE610B5401EB0F199
:10213000807F01D3012010BD4FF0E02460610F21AA
:10214000601700F01BFB0020A06107202061002029
:1021500010BD10B5040003D094F8690010B107E079
:10216000012010BD002084F86800204600F026F809
:10217000242084F869002068016821F001010160D1
:10218000204600F029FF0128EBD0606A10B12046FC
:1021900000F090FE2068416821F490414160206881
:1021A000816821F02A0181602068016841F0010105
:1021B00001602046BDE8104000F0E0BE10B586B0DA
:1021C000044614216846FEF76EF8134920688842D9
:1021D0001FD11248C16941F48021C161C16901F474
:1021E00080210591416941F480114161406969464E
:1021F00000F4801005904FF4407000900220019090
:102200000020029003200390072004900448FEF76A
:102210001BFD06B010BD0000004800400010024049
:10222000000C004810B5094C4FF400412046FEF761
:102230006BFC4FF480412046FEF766FC4FF40051E2
:102240000348FEF761FC002010BD0000000C0048B0
:102250000014004870B5174886B0416941F4003158
:1022600041614069002400F4003005904FF40040C3
:1022700000901148CDE90104104E69463046FEF742
:10228000E3FC4FF4005000900125CDE9015469466C
:102290000B480394FEF7D8FCA8030090CDE9015445
:1022A000694630460394FEF7CFFCFEF77DFB06B08F
:1022B00070BD00000010024000001110000C00482A
:1022C000001400482DE9F04387B00E460746FF2072
:1022D0001AA18DF81400D1E90001CDE90301DFF85E
:1022E000649000244FF48048224641464846FEF759
:1022F0009AFD052201A903A8FEF798FB9DF80400AA
:10230000022812D1BDF807507DB1B5420BD9354630
:1023100009E00122694605A8FEF788FB9DF8000048
:102320003855641CE4B2AC42F3D30122414648461E
:10233000FEF779FD07B02046BDE8F0830B000000F2
:1023400000000000000C004870B50A4D4FF4005426
:10235000002221462846FEF766FD0520FEF7A2FB77
:10236000012221462846FEF75EFD0520FEF79AFB76
:10237000002070BD001400482DE9FF5F8A4620A1AF
:102380008346D1E90001CDE90201FEF751FD1E4F60
:1023900005466FF001094FF0FF384FF480460024E6
:1023A000224631463846FEF73EFD0522694602A820
:1023B000FEF73CFB9DF8000002280DD044460122A8
:1023C00031463846FEF72FFDFEF732FD401B0F2841
:1023D0000FD96FF002040EE09DF8011050465145F0
:1023E00005D3024609495846FEF720FBE7E74C466D
:1023F000E5E7002CD3DB04B02046BDE8F09F0000E9
:102400000A00000000000000000C00489C040020AE
:10241000FEE7000001B582B002A800900548022343
:102420000022018A408901F09BF9002800D0472052
:102430000EBD00000C0000202DE9F04138A08CB04A
:10244000D0E9007434A601210020FEF757FA0020DD
:10245000FEF700FA0020FEF7BBF90020FEF73CFA79
:10246000314D68700021314801F030FA0AA909A8FD
:1024700001F006FA01F008FB6420FEF713FB9DF85B
:1024800024004FF00108302804D9022085F800808C
:1024900060F30F24CDE9067406AA0621002001F09E
:1024A000C0F901F040F92878012813D008AB05AA3B
:1024B00004A9012000F0FDFE3046FDF7FFFEC3B287
:1024C00000960022BDF81410BDF8100001F048F984
:1024D00058B1FEE708A905A8CDE9000104AB072221
:1024E0000021012000F019FFE6E700221049102327
:1024F000CDE90032CDE9021807231146012000F092
:1025000044FFFDF729FFFDF7E9FF0421012001F059
:1025100064F90CB0BDE8F081426C75654E5247001D
:10252000123400E18003000008000020A13E0008F2
:1025300040E2010010B5034800F074FEBDE8104011
:1025400001F0CABB9C0500202DE9F04F87B0142193
:102550006846FDF7A8FE5948416941F400214161F0
:10256000416901F400210591416941F48001416113
:10257000416901F480010591416941F400314161F3
:10258000416901F400310591416941F480214161C3
:10259000416901F480210591416941F48011416153
:1025A000416901F480110591416941F400014161E3
:1025B0004069DFF80CA100F400000590002244F20D
:1025C00081015046FEF72FFCDFF8F8B04FF40056BB
:1025D000002231465846FEF726FC4FF48048002280
:1025E00041463948FEF71FFC002240213748FEF7DC
:1025F0001AFC4FF40079012249463548FEF713FCD6
:10260000344F00240096CDE9017469463048FEF746
:102610001BFB01250095CDE9015469465046039501
:10262000FEF712FB0096CDE9015469465846039423
:10263000FEF70AFB4FF481400090CDE90154694652
:1026400050460394FEF700FBCDF80080CDE901541D
:1026500069461D480394FEF7F7FAE803CDE9000741
:10266000694602941848FEF7EFFA40200090CDE941
:102670000154694615480394FEF7E6FA8020CDE937
:102680000004694611480294FEF7DEFACDF8009086
:10269000CDE9015469460E480395FEF7D5FA680462
:1026A000FEF7CCFB002211462820FEF737FC28203D
:1026B000FEF728FC07B0BDE8F08F000000100240D4
:1026C0000004004800140048000C004800180048AE
:1026D000000800480000111010B50F4901604FF4C8
:1026E0008271416000244FF4E062C0E902424FF47D
:1026F00000720461C0E905421822C0E907240722DC
:102700004462C0E90A420821C0E90C41FFF792FB8C
:1027100000B10124204610BD0030014010B50A4927
:10272000016000244FF4E131C0E901140C22C460BF
:10273000C0E904428461C46104624462FFF709FD98
:1027400000B10124204610BD00440040094808495A
:1027500001604FF4E1314160002181600C22C160D1
:10276000C0E904128161C16101624162FFF7F1BCFD
:102770000048004084000020FEE770470907090E6A
:10278000002806DA00F00F0000F1E02080F8141DA8
:10279000704700F1E02080F8001470472DE9FC5FDD
:1027A00000270446ADF8007048F60F7A40F2064B59
:1027B00040F202487AE100BFBDF8041011F00F06A4
:1027C0002CD030F82610ADF80010BDF80010090428
:1027D00074D530F8261040F68F72114020F826107C
:1027E000C6EBC60004EB800595F8D60105F5E67545
:1027F000002820687ED0297830F821205204B0F8D3
:10280000502002EB000376D508EBC101595AC1F301
:1028100009015FEA01096FD0EA88BEE0BDF8041043
:10282000C90628D4028802EA0A020280206804F15C
:102830002805B0F850100A18297808EBC100105A82
:10284000C0F309002064A16B0844A0630021204666
:10285000FEF796FB94F824000028ABD068690028A6
:10286000A8D194F82400216840F08000A1F84C0021
:1028700084F824701AE1018804F5E675ADF80010BB
:10288000BDF8001009051AD5B0F850102A78014497
:102890000BEBC200085A04F55D71C0F30903AB618C
:1028A000AA88206800F010F92068028840F68F712D
:1028B0000A4002802046FEF71EFDF7E093E0BDF8D7
:1028C00000100904D6D5018840F68F7211400180AE
:1028D0002068B0F850102A7801440BEBC200085A67
:1028E00083059B0DAB610CD0AA882969206800F094
:1028F000EBF802E036E047E053E02969A8690844B4
:10290000286100212046FEF73CFB2068B0F85010FB
:102910000A18E86802F206423E280CD9C0F34F11AB
:10292000C00601D1491E89B24FF6FF7000EA81202E
:1029300040F4004009E0C0F34F01C00701D0491C3A
:1029400089B24FF6FF7000EA81201080206801886C
:102950004BF68F72114081F4405148F280021143CE
:102960000180A3E0B0F850102A780B180BEBC201DD
:10297000595AC1F309015FEA01091ED0AA884B46E2
:10298000296900F0A1F818E00BEBC101595AC1F315
:1029900009015FEA010904D02A894B46296900F040
:1029A00093F82A78216831F8223048F68F70034076
:1029B00048F2C000034321F82230A96901EB090065
:1029C000A861296901EB09022A616B6913B1E96801
:1029D000494504D929782046FEF7D3FA03E029783F
:1029E0002046FEF7CFFABDF8000000065ED5C6EB24
:1029F000C60004EB8005206830F8262002EA0A02AF
:102A000020F8262095F8320028350028206810D0BC
:102A1000297830F821205206B0F85020024419D508
:102A200008EBC100105A83059B0DAB611ED0EA88EC
:102A300018E0B0F850102A78014408EBC200085A98
:102A400083059B0DAB611DD0AA882969206800F021
:102A50004FF817E00BEBC100105A83059B0DAB61DB
:102A600004D02A892969206800F042F82878216872
:102A700031F8202048F68F731A404CF280031A4335
:102A800021F820202068B0F850102A78014408EB83
:102A9000C200085AC0F30900A86129690A182A610E
:102AA00029786B69204663B1FEF7BDFA2068B0F85B
:102AB0004410ADF8041009043FF57EAE0020BDE8D7
:102AC000FC9FFEF75DFAF1E710B510445C0800F5D5
:102AD000806008D030F8022B01F8012B120A01F8AF
:102AE000012B641EF6D1DA0701D00078087010BD02
:102AF00010B55B1C10445B0800F580600AD000BF75
:102B000011F8012B5B1E11F8014B42EA042220F858
:102B1000022BF5D110BD704701B582B002A800901C
:102B2000054803230022C189408900F019FE0028CE
:102B300000D047200EBD00000C00002070B50446F8
:102B40000068C168490614D44FF0FF31C160FEF738
:102B50006FF905464FF47A7607E000BFFEF768F993
:102B6000401BB04201D9032070BD2068C0684006F8
:102B7000F4D5002070BD000070B52A4C2189491C95
:102B8000884203D12848FDF7C1FB42E0A1896FF0DC
:102B90000045491C884213D1FDF75AFB0F2180FBE9
:102BA00001012A460023FDF711FB4FF487714018FD
:102BB00005B21D48FDF7AAFB284600F069F928E098
:102BC000E189491C884211D16420FDF76BFFFDF7B4
:102BD0003FFB4FF47A7180FB01012A460023FDF789
:102BE000F5FA12494018FFF797FF12E0218A491CB5
:102BF00088420ED1FDF72CFB642180FB01012A469F
:102C00000023FDF7E3FA4FF4E171401880B2FFF7BB
:102C100001FC6088002804D06088BDE8704000F0A6
:102C20005FBD70BD0C0000209C050020A086010047
:102C3000F8B515460E460B460092044600224FF4A6
:102C4000C05100F019F888B933460022802120468F
:102C5000009500F060F848B9334600224FF4C06197
:102C60002046009500F008F8002804D0206E40F0BF
:102C7000200020660320F8BD2DE9F8431D461746C5
:102C80000E4604464FF4C068DDF820903CE046450F
:102C900005D127B9007B8DF800009DF80000681C65
:102CA00032D02DB1FEF7C4F8A0EB0900A8422BD317
:102CB0002068416821F0E00141606068B0F5827FE2
:102CC0000BD1A068B0F5004F02D0B0F5806F04D1F1
:102CD0002068016821F040010160A06AB0F5005F42
:102CE00009D12068016821F4005101602068016861
:102CF00041F400510160012084F85D00002084F857
:102D00005C000320BDE8F883206881683140B94247
:102D1000BDD10020F6E72DE9F0411D4617460E46CD
:102D20000446DDF8188034E0681C32D02DB1FEF77F
:102D30007FF8A0EB0800A8422BD32068416821F05F
:102D4000E00141606068B0F5827F0BD1A068B0F50A
:102D5000004F02D0B0F5806F04D12068016821F0E7
:102D600040010160A06AB0F5005F09D120680168E8
:102D700021F4005101602068016841F400510160B4
:102D8000012084F85D00002084F85C000320BDE889
:102D9000F0812068806836EA000004D00020B84244
:102DA000C2D10020F3E70120F9E77047FEF75AB8D7
:102DB00030B5A5B0282116A8FDF775FA142120A872
:102DC000FDF771FA58216846FDF76DFA0920169053
:102DD0004FF4A0201790012002251990CDE91B0582
:102DE00000041D904FF4E0100024CDE91E0416A845
:102DF000FEF7CCFC0F20CDE920056802CDE922408A
:102E0000022120A82494FEF7C3FB06480090280264
:102E100015940190039404946846FEF76FFA25B068
:102E200030BD0000060003001448016841F4700141
:102E300001601348016841F0010101604168114AD5
:102E4000114041600168104A11400160016821F49D
:102E500080210160416821F4FE014160C16A21F0D6
:102E60000F01C162016B094A1140016300218160B9
:102E70000249C003803908607047000088ED00E017
:102E8000001002400CC07FF8FFFFF6FECCFC00FFF4
:102E900001B582B002A80090054802230022818972
:102EA000408900F05DFC002800D047200EBD0000E6
:102EB0000C00002090F82410C90706D001684A6869
:102EC000836A22F400321A434A6090F8241089077A
:102ED00006D501684A68C36A22F480321A434A6000
:102EE00090F82410490706D501684A68036B22F45C
:102EF00080221A434A6090F82410090706D5016819
:102F00004A68436B22F400421A434A6090F8241046
:102F1000C90606D501688A68836B22F480521A4379
:102F20008A6090F82410890606D501688A68C36B08
:102F300022F400521A438A6090F82410490611D5F1
:102F400001684A68036C22F480121A434A60016CDB
:102F5000B1F5801F06D101684A68436C22F4C002B3
:102F60001A434A6090F82410090606D501684A6899
:102F7000806C22F4002202434A607047F8B50026B4
:102F80000446C666FDF754FF0546206800686FF0EA
:102F90007E47000708D52B4600224FF4001120463B
:102FA000009700F005F960B92068006840070AD56D
:102FB0002B4600224FF480012046009700F0F8F8DD
:102FC00008B10320F8BD202084F8690084F86A0065
:102FD00084F868600020F8BD2DE9F0410446102017
:102FE0002369A268E6691A436369002133431A43DF
:102FF00023680D461E68654F3E4016431E602268DA
:103000005368E66823F4405333435360236AA2694C
:103010001A4323689E6826F4306616439E605C4F10
:1030200022685C4B0603BA420CD11B6B13F00303FE
:1030300006D0012B4DD0022B4DD0032B4CD146E0B6
:10304000012049E0544FBA420CD11B6B13F44033BA
:103050003BD0B3423DD0B3F5003F3CD0B3F5403F49
:103060003AD134E04D4FBA420DD11B6B13F44023DB
:103070002BD0B3F5802F2CD0B3F5002F2BD0B3F588
:10308000402F29D123E0464FBA420DD11B6B13F4D8
:1030900040131AD0B3F5801F1BD0B3F5001F1AD010
:1030A000B3F5401F18D112E03E4FBA4214D11B6B4A
:1030B00013F4400309D0B3F5800F0AD0B3F5000F25
:1030C00009D0B3F5400F07D101E0002004E0022051
:1030D00002E0042000E00820E7694FF400439F422B
:1030E00027D109281ED2DFE800F00508131D161DA0
:1030F0001D1D1900FEF7EEFA01E0FEF703FB41008B
:10310000D4F8040001EB5001B1FBF0F081B20AE009
:1031100025496068F6E7FEF70DFBF0E7606806EB0F
:103120005001F1E7012521F00F00C1F342010843EE
:103130001CE0092825D2DFE800F005080B24102444
:1031400024241C00FEF7C6FA09E0FEF7DBFA06E0CD
:103150001649606801EB50010EE0FEF7EBFA0146FC
:10316000606801EB5001B1FBF0F080B22168C860EB
:1031700008E0606803EB5001B1FBF0F080B2D06072
:1031800000E001252846BDE8F0810000F369FFEF6B
:103190000038014000100240004400400048004058
:1031A000004C0040005000400024F40000127A005F
:1031B0002DE9F041984617460E460446069D1DE04F
:1031C000681C1BD02DB1FDF733FEA0EB0800A84210
:1031D00014D92068016821F4D071016020688168E9
:1031E00021F001018160202084F8690084F86A00E0
:1031F000002084F868000320BDE8F0812068C069E1
:1032000036EA000004D00020B842D9D00020F3E70D
:103210000120F9E70148FDF76CBF0000F400002031
:10322000FEE7000070B5184D04462878002610B15E
:1032300000F016FE2E70154DA878002820D0322000
:10324000FDF730FC0020FDF747FB6978C9B100218C
:103250008842F7D03220FDF725FC0020FDF726FB41
:103260000B48006858B120686430206060686430A2
:103270006060A0686430A0602046FDF747F8AE703B
:1032800070BD0121E4E700000C00002008000020D0
:103290002000002002E008C8121F08C1002AFAD14D
:1032A00070477047002001E001C1121F002AFBD1C6
:1032B000704770B58AB00E468DF82000002000904F
:1032C00001901C461546182102A8FCF7ECFF3F2090
:1032D000ADF808008A20ADF80A0008A80490012083
:1032E000059007200790CDF818D0002102A800F023
:1032F000E7FB002802DAFF200AB070BD9DF800004D
:103300000028F9D1BDF801003080BDF80300288005
:10331000BDF8050020800020EEE770B58AB01C469D
:103320008DF82000DDE90E6500208DF82110009059
:1033300001908DF82220182102A8FCF7B4FF3F204D
:10334000ADF808008A20ADF80A0008A80490032010
:10335000059007200790CDF818D0002102A800F0B2
:10336000AFFB002802DAFF200AB070BD9DF8000014
:103370000028F9D1BDF801002080BDF8030030809D
:10338000BDF8050028800020EEE72DE9F0438FB05E
:103390001D46134616AA6C4692E8C0038DF800003D
:1033A0008DF8011010221946A01CFCF763FF8DF860
:1033B00012508DF813608DF81470CDF815808DF8CB
:1033C0001990182107A8FCF76EFF3F20ADF81C00EC
:1033D0008620ADF81E001A20CDE909400DA80B90FB
:1033E00001200C90002107A800F06AFB002803DAF6
:1033F000FF200FB0BDE8F0839DF83400F9E72DE918
:10340000FF4192B01EACDDE91C2594E84201AC19E5
:103410000E34282C03D9422016B0BDE8F0818DF877
:103420001C00BDF84C00ADF84C0080B2ADF81D009A
:10343000BDF85000ADF8500080B2ADF81F008DF817
:1034400021308DF8222007AC01278DF8235009A8E0
:103450002A46FCF70FFF0835E8B232462654401CD6
:10346000C5B260194146FCF705FFBDF88410A819E4
:10347000ADF88410C0B22118BDF884200A80BDF8D0
:103480008810801CADF88810C0B22118BDF88820C3
:10349000801C0A80C5B2182101A8FCF704FF3F2058
:1034A000ADF804008320ADF8060011A8CDE9045062
:1034B00000210697039401A800F002FB002801DA1E
:1034C000FF20A9E79DF84400A6E72DE9FF4F8FB044
:1034D0001F46DDE92089BDF83C00DDF878A0ADF895
:1034E0003C0080B2DDF870B0ADF81C000326134636
:1034F00007AD8DF81E10012937D010242246194639
:10350000E81CFCF7B7FEE41C2F55641C05F804B05A
:10351000641C1D982855641CE0B205F800A0401CEE
:10352000C0B21F992954401CC0B2182105F8008070
:10353000401CC4B20020009001A8FCF7B4FE3F205C
:10354000ADF804004FF48270ADF806006846CDE98E
:10355000044000210696039501A800F0B1FA002866
:1035600005DAFF2013B0BDE8F08F0224C6E79DF80E
:1035700000000028F6D1BDF80110A9F80010F1E70D
:103580002DE9FF4FA9B01946DDE93998BDF8A4002F
:10359000DDE93676ADF8A40080B2ADF80000DDF8C4
:1035A000F8A0BDF8A800ADF8A800DDF8ECB080B236
:1035B0006D46ADF802008DF80420012A11D01024C8
:1035C0002246681DFCF756FE641D2F55641C2E55BF
:1035D000641C3019401D802805D942202DB0BDE85B
:1035E000F08F0224ECE7281932463899FCF742FEA6
:1035F000A019C0B205F80090401CC0B205F80080C8
:10360000401CC0B205F800B0401CC0B23C9929541F
:10361000401CC0B23D992954401CC4B200202090E7
:10362000182121A8FCF73FFE3F20ADF8840040F2AE
:103630000510ADF8860020A8CDE92440032026908F
:103640002395002121A800F03BFA002801DAFF2091
:10365000C4E79DF880000028C0D1BDF88110AAF809
:103660000010BBE72DE9F0418CB01E46DDF8488024
:10367000174607AD8DF81C00012826D010242246DD
:10368000681CFCF7F7FD641C00202F55641C1821F2
:103690002E55009001A8641CFCF705FE3F20ADF8F4
:1036A00004004FF48170ADF806006846CDE904408F
:1036B000032006900395002101A800F001FA0028DC
:1036C00005DAFF200CB0BDE8F0810224D7E79DF8B1
:1036D00000000028F6D1BDF80110A8F80010F1E7AD
:1036E00000B589B01821ADF81C006846FCF7DBFD79
:1036F0003F20ADF8000040F22710ADF8020007A807
:1037000002900220039006A8049001200590002159
:10371000684600F0D5F9002802DAFF2009B000BDA4
:103720009DF81800FAE700B587B018216846FCF745
:10373000BAFD3F20ADF8000040F20110ADF80200E4
:1037400006A80490012005900021684600F0B8F911
:10375000002802DAFF2007B000BD9DF81800FAE744
:103760003FB5A7B09D1D2E99802D02D942202BB0C8
:1037700030BDBDF89C00ADF89C0080B2ADF80000F3
:10378000BDF8A000ADF8A00080B28DF804206C4612
:10379000ADF802008DF805301A46A01DFCF76AFD51
:1037A000EDB2182120A8FCF77EFD3F20ADF8800087
:1037B0004FF48370ADF8820026A82294CDE92350FF
:1037C00001202590002120A800F07AF9002801DAD4
:1037D000FF20CCE79DF89800C9E700B589B08DF8C7
:1037E0001C008DF81D1018216846FCF75CFD3F2079
:1037F000ADF800000F20ADF8020007A802900220EB
:10380000039006A80490012005900021684600F06E
:1038100057F9002802DAFF2009B000BD9DF8180012
:10382000FAE770B58D1CA8B01346802D02D942204E
:1038300028B070BD8DF800006C468DF801100A4666
:1038400001261946A01CFCF715FDEDB2182120A891
:10385000FCF729FD3F20ADF880000C20ADF8820078
:1038600026A825962294CDE92350002120A800F017
:1038700027F9002801DAFF20DAE79DF89800D7E75A
:1038800030B587B0054601A80C46009005AB04AAE8
:1038900002A903A800F048F810F0FF0014D1BDF809
:1038A0000810090A2970BDF8081009022180BDF826
:1038B0000420C2F3031241EA02112180BDF8042062
:1038C00002F00F021143218007B030BD70B5134DD7
:1038D00000B1E86100F0B8F9114800F029FA104889
:1038E000083000F025FA0F4E002400BFC4EBC400DE
:1038F00000EB800006EB8001094800F028FA641C08
:10390000E4B2052CF2D3296809B100208847A868E1
:10391000002802D0BDE87040004770BD3809002083
:10392000500000207C0600202DE9F04389B00024DF
:103930000F468046DDF840901D46164600940194DF
:10394000182103A80294FCF7AEFC0420ADF80C008B
:103950000120ADF80E006846CDE906400920089028
:103960000594002103A800F0ABF8002803DAFF203B
:1039700009B0BDE8F0839DF800000028F8D19DF85B
:10398000011088F80010BDF8020038809DF804008E
:103990003070BDF805002880BDF80710A9F80010A8
:1039A0000020E5E730B58FB00D460446202168467B
:1039B000FCF779FC8DF800401F2C00D91F2422460B
:1039C0006C462946601CFCF755FC182108A8FCF73A
:1039D0006AFC0820ADF820000920ADF82200202064
:1039E000CDE90A400EA80C9001200D90002108A8F6
:1039F00000F066F8002802DAFF200FB030BD9DF815
:103A00003800FAE738B5002004460090154800F069
:103A1000AAF910B10124204638BD6946114800F0CA
:103A2000AEF91148C268002AF5D00098802108300C
:103A30009047009910F0FF000FD081F888000B7AB2
:103A400001F10802042B08D19278C01E824204D1F1
:103A50000448083000F07BF9DDE7024800F06BF91C
:103A6000D9E700005000002038090020054902680D
:103A70000A60C268CA6002690A6182698A618068F4
:103A8000886070473809002000B587B01821684663
:103A9000FCF709FC0320ADF80000ADF8020006A811
:103AA0000490012005900021684600F009F80028E4
:103AB00002DAFF2007B000BD9DF81800FAE7000009
:103AC0002DE9F0410F46044601884088A8B061F313
:103AD0009F2085B24FF0000826A8CDF8908000F016
:103AE00027F908E06946564800F049F9544800991A
:103AF000083800F02CF95248083800F00BF9022879
:103B0000F0DB22886088267B62F39F20A168ADF8F5
:103B1000840001208DF886608DF80000BDF88400D7
:103B2000ADF801008DF80360324601A8FCF7A2FB56
:103B30004448026912B1311D684690471FB1002008
:103B400028B0BDE8F0814FF47A7600BFFDF770F938
:103B50004FEA0007FDF76CF9C01BB04262D8384845
:103B600000F001F90028F5D124A9354800F007F943
:103B7000249800F10803017A04293ED190F88820A6
:103B80005878D91CD21E0E2814D00F2804D0102823
:103B900048D03E2831D118E04888A84242D1606818
:103BA0000F2802D00878A8BB27E0606909E06261AD
:103BB000206916E0B1F80100A84233D1C91C606940
:103BC000D21E9042F3D80246F1E708786368984223
:103BD00013D16069521E904200D802466261491CAE
:103BE0002069FCF747FB16482499083800F0A3F831
:103BF00026A9134800F022F9A1E71148083800F07F
:103C0000B2F840B10E4800F0AEF820B10C4824994B
:103C1000083802E006E026A8249900F098F8CDF8CC
:103C2000908093E7249919B10548083800F083F88B
:103C300026A9034800F002F94FF0FF3080E70000AA
:103C4000580000203809002000B587B010480090C7
:103C500010480190104804901048039010480290BA
:103C6000104806906846FFF701FF0F490F48FCF720
:103C70002BFF0F4A00210D48FCF73EFF00221146A2
:103C80002820FDF74BF92820FDF73CF907B000BDCF
:103C9000552200082522000879230008C5220008C3
:103CA00049230008510800080F000006000000200A
:103CB000B53C000870B5074D4FF400442146284636
:103CC000FDF7A8F8012804D10020FFF79BFE00288B
:103CD000F4D070BD000C004838B500200B4C0090AB
:103CE0000DE069460A4800F04AF8E16911B1009810
:103CF0000830884706480099083800F028F804483A
:103D000000F031F80028ECD038BD00003809002060
:103D10005800002003460020EFF3108172B61A68A5
:103D200001E01268401C9A42FBD181F31088704771
:103D3000006040607047EFF3108272B60368C1E91B
:103D400000300160086882F3108841607047EFF32B
:103D5000108272B6086043684B604160486882F325
:103D6000108801607047EFF3108172B602688242DA
:103D700001D1012000E0002081F31088704730B5A8
:103D80000D46EFF3108472B601682960006800F0F8
:103D900008F8296800200860296884F310884860C2
:103DA00030BDEFF3108172B6D0E900231A6005C868
:103DB00081F310884260704730B50D46EFF31084F0
:103DC00072B6416829604068FFF7EBFF2968002060
:103DD0000860296884F31088486030BDFDF74AF810
:103DE000FEF7E6FFFEF7B0FB124811490024C0E9D8
:103DF00000147F218160FF21C0E9031444618461C4
:103E0000FDF790FFFEF7A2FC0A480B4990300160D5
:103E100008214160022181608461C4610462016102
:103E2000FDF7DFF9FEF708FBFEF784FBFCE7000077
:103E30000028004064000020005C004038B50C46BB
:103E4000054607E069462046FFF7B6FF2846009979
:103E5000FFF771FF2046FFF786FF0028F2D038BD3C
:103E600000B50DA189B0D1E90001CDE9070100211C
:103E70000846FFF797FD002003900490059007AADD
:103E8000082106908DE807004A0203460902FFF761
:103E9000B6FA09B000BD000009426C75654E524784
:103EA000421C0078042819D1107805280CD03E282F
:103EB0000CD0FF2812D132F8020FA0F54060143860
:103EC0000CD19088FEF758BEFCF7E2BD9178901CAB
:103ED000012903D14188801DFCF7D0BD7047020342
:103EE0000405060708090A0B0C0D0E0F101001023D
:103EF000030405060708090A0B0C0D0E0F1000003D
:103F00000000000000000102030406070809000089
:103F100000000102030400002800800000200000CF
:103F2000510A00080F0000000D0000064C3F000879
:103F3000000000206400000094320008B03F000838
:103F400064000020F40C0000A4320008000000000F
:103F5000000000000001000001000000000000005F
:103F60000000000000000000000000000000000051
:103F70000000000001000000100000000000000030
:103F800000127A0000000000000400480008004809
:103F9000004400400D00000600000000000000008A
:103FA0000000000000000000000000000000000011
:040000050800019559
:00000001FF
