:020000040800F2
:10000000600D0020A9010008AD2900087921000831
:10001000F12500088F060008B13300080000000039
:100020000000000000000000000000005D2F00083C
:1000300091060008000000004B2D00085F2F00080B
:10004000C3010008C3010008C3010008C301000880
:10005000C3010008C3010008C3010008C301000870
:10006000C3010008C3010008C3010008C301000860
:10007000C3010008C3010008C3010008C301000850
:10008000C3010008C3010008C3010008C301000840
:10009000A5330008C3010008C3010008C30100081C
:1000A000C3010008C3010008C3010008C301000820
:1000B000C3010008C3010008C3010008C301000810
:1000C000C3010008C3010008C3010008C301000800
:1000D000C3010008C3010008C3010008C3010008F0
:1000E00095060008C3010008C3010008C301000809
:1000F000C3010008C3010008C3010008C3010008D0
:10010000C30100080000000000000000C301000857
:10011000C3010008C3010008C3010008C3010008AF
:10012000C3010008C3010008C3010008C30100089F
:10013000C3010008C3010008000000000000000027
:10014000C3010008C3010008C3010008000000004B
:10015000000000000000000000000000000000009F
:10016000C3010008C3010008C3010008C30100085F
:10017000C3010008C3010008C3010008C30100084F
:10018000C3010008C30100080000000000000000D7
:10019000C3010008DFF80CD000F080F800480047E9
:1001A00041440008600D002006488047064800478B
:1001B000FEE7FEE7FEE7FEE7FEE7FEE7FEE7FEE717
:1001C000FEE7FEE7DD2F00089501000800207047DC
:1001D000202A04DB203A21FA02F00021704721FA9C
:1001E00002F3D040C2F12002914008431946704703
:1001F00040EA01039B0703D009E008C9121F08C0A9
:10020000042AFAD203E011F8013B00F8013B521E28
:10021000F9D27047D2B201E000F8012B491EFBD29F
:1002200070470022F6E710B513460A460446194601
:10023000FFF7F0FF204610BD2DE9F05F05460020D6
:1002400092469B4688460646814640241BE0284647
:10025000414647462246FFF7BBFF53465A46C01A5F
:10026000914110D311461846224600F029F82D1A64
:1002700067EB01084F4622460120002100F020F8DC
:1002800017EB00094E41201EA4F10104DFDC4846B3
:1002900031462A464346BDE8F09F0000064C074D14
:1002A00006E0E06840F0010394E807009847103446
:1002B000AC42F6D3FFF772FF98470008B847000832
:1002C000202A04DB203A00FA02F100207047914016
:1002D000C2F1200320FA03F3194390407047000055
:1002E000F0B520A193B00FC906AC84E80F0021A19E
:1002F0000AAC0FC984E80F0022A30EAC0FCB84E830
:100300000F00244800900723012206A9022003F0D1
:1003100017FC20BB1F480026801C012410250296D4
:100320000590CDE90354CDE90056A0F11007142340
:100330000AAA0221F88903F0A8FB80B907F112008C
:10034000CDE904400C20CDE90006CDE90245142397
:100350000EAA0221F88903F098FB002800D047205C
:1003600013B0F0BD669A0C200008969EE2119EB173
:10037000E0F273D9669A0C200008969EE2119EB1B5
:10038000E1F273D9669A0C200008969EE2119EB1A4
:10039000E2F273D92A000020094B30B45C8A641C55
:1003A000A04203D130BC104604F0A6B8198A891CBB
:1003B000884203D11078012800D1587030BC7047B2
:1003C0001C00002030B5002487B0012801D9A41EEC
:1003D0002EE01949C0EBC00251F82010174800EB7D
:1003E000021529601649C86940F40030C861C8691F
:1003F00000F400300590486940F4003048614869D5
:10040000694600F4003005900C2000900220019015
:100410000020029003200390072004904FF09040AA
:1004200000F06CFA284602F0B5F808B16FF003044A
:1004300007B0204630BD0000440000201006002018
:100440000010024000F04EBB70B50446114886B063
:10045000416941F48021416140690F4E00F48020E0
:10046000059036F8140000900120019002900B4D89
:100470000320039055F82400694600F03FFA36F84F
:10048000141055F82400002200F027FB06B00020CD
:1004900070BD0000001002404E4700083C000020E4
:1004A000054910B5054A31F8101052F82000002215
:1004B00000F013FB002010BD4E4700083C00002058
:1004C000054910B5054A31F8101052F820000122F4
:1004D00000F003FB002010BD4E4700083C00002048
:1004E000054910B5054A31F8101052F8200000F007
:1004F000F0FA002010BD00004E4700083C0000202C
:1005000001490120887070470C000020064910B591
:10051000064A31F8101052F8200000F0D5FA08B160
:10052000002010BD012010BD5047000840000020F1
:10053000F0B50446254887B00025426942F4002200
:100540004261406900F400200590214830F8140011
:10055000009002200290032003901E4850F82400CF
:1005600091B11D490191694600F0C8F918480C3055
:1005700050F824101748083000EBC400064600F07D
:10058000FDF82F1F78B905E000210191694600F0C0
:10059000B5F917E00E480021001D50F82420304620
:1005A00000F004F908B13D460CE00948002208308B
:1005B000A0F10C0650F82410305700F009FB30571A
:1005C00000F0FAFA07B02846F0BD00000010024023
:1005D00050470008400000200000111010B51D49D0
:1005E00086B01B4808601C4800240168491C016053
:1005F000012929D1174801F074FA28BB17498869E5
:1006000040F480508861886900F480500590486902
:1006100040F4003048614869694600F400300590B4
:10062000E02000900220019000200290032003901F
:10063000052004904FF0904000F060F9054801F06B
:1006400087FF08B16FF0070406B0204610BD000018
:1006500000300140AC0500203400002000100240B2
:1006600038B54FF48053009313460A4601460024E0
:10067000034801F095FA00B1A41F204638BD0000E0
:10068000AC05002010B50020FFF73AFF10BDFEE7D3
:100690007047000010B5044800F076F8BDE810403F
:1006A000024800F071B8000048000020040000205B
:1006B00070B505460A4801224261018109A002F095
:1006C00079FE05240DA0295D02F074FE641E002C45
:1006D000F8DC2978BDE870400AA002F06BBE00008B
:1006E0001C000020436F6E6E656374656420746F38
:1006F000206465766963653A000000002530325851
:100700002D000000253032580A00000070B5074C5B
:100710000025656106A002F04DFE01202070657085
:10072000A570E5702571657170BD00001C0000208A
:10073000446973636F6E6E65637465640A000000DC
:10074000044B5B895B1C984202D1104603F0D4BE77
:10075000704700001C00002070B5044600F0C2F98C
:100760000546601C02D004480078044400F0BAF941
:10077000401BA042FAD370BD5000002010B10160B0
:100780000020704701207047017801F01F0201210D
:100790009140054A13680B4204D01160406800285C
:1007A00000D00047704700001404014003460020B9
:1007B00009B1012070475A60704700002DE9F04FE1
:1007C000002301270F24DFF814A181E007FA03F6C4
:1007D00016EA01027BD005684FEA43084FF0030C8C
:1007E0000CFA08FC25EA0C050560DD0800EB85081D
:1007F000C346D8F820905D074FEAD56804FA08F59B
:1008000029EA0509CBF82090856825EA0C05856062
:100810004568B5434560C56825EA0C05C56023F009
:10082000030606EB0A05D5F808C09E07360F04FA42
:1008300006F909EA0C08B0F1904F06D0DFF8A0C025
:10084000604505D14FF0010C27E04FF0000C24E08B
:10085000DFF890C0604502D14FF0020C1DE0DFF8D8
:1008600088C0604502D14FF0030C16E0DFF87CC071
:10087000604502D14FF0040C0FE0DFF874C0604512
:1008800002D14FF0050C08E0DFF868C0604502D1E6
:100890004FF0060C01E04FF0070C0CFA06FCC445C3
:1008A00015D1D5F808C02CEA090CC5F808C0124EBD
:1008B000356895433560361D356895433560351D7F
:1008C0002E6896432E602D1D2E6896432E605B1C6D
:1008D00031FA03F27FF47AAFBDE8F08F00000140F7
:1008E0000004004800080048000C004800100048C0
:1008F0000014004800180048000401402DE9F84F9A
:10090000DFF8A0B1002301274FF0030A4FF00F09D1
:100910000BF1040EBEE000BF07FA03F634402200DC
:1009200072D04C68022C01D0122C12D1DC0800EBE2
:10093000840CDCF820405D07ED0E09FA05F824EA86
:100940000804D1F8108008FA05F848EA0408CCF841
:100950002080D0F800805D0091F804C00AFA05F408
:100960000CF0030C28EA04080CFA05FC4CEA080C0D
:10097000C0F800C0D1F804C0BCF1010F08D0BCF130
:10098000020F05D0BCF1110F02D0BCF1120F16D12D
:10099000D0F808C0D1F80C802CEA040C08FA05F84D
:1009A00048EA0C08C0F80880D0F804C02CEA060C0D
:1009B0000E79C6F300169E4046EA0C064660C668ED
:1009C000A6438C68AC403443C4604C68E40060D5F6
:1009D000354CA56945F00105A561A46923F003051F
:1009E00004F001040094314C2E19B4689D074FEABD
:1009F000157C09FA0CF5AC43B0F1904F05D02C4DA5
:100A0000A84204D101251CE043E0002519E0294D4E
:100A1000A84201D1022514E0274DA84201D10325A7
:100A20000FE0264DA84201D104250AE0244DA8423A
:100A300001D1052505E0234DA84201D1062500E09E
:100A4000072505FA0CF52543B560DBF800405D4647
:100A50004E689443F60300D514432C60DEF8004042
:100A600075464E689443B60300D514432C600D4D73
:100A700008352C684E689443F60200D514432C6068
:100A8000084D0C352C684E689443B60200D51443CB
:100A90002C605B1C0A681446DA407FF43DAFBDE869
:100AA000F88F0000000401400010024000000140E7
:100AB0000004004800080048000C004800100048EE
:100AC00000140048001800480069084000D00120C8
:100AD000704742694A40426170470AB1816170477C
:100AE0008162704701488068704700005000002014
:100AF000074908B58A6942F001028A61896901F0F3
:100B00000101009103490A6802430A6008BD000020
:100B10000010024000000140024881680278114440
:100B20008160704750000020074810B5016841F00F
:100B300010010160032000F06BF8002000F006F8BF
:100B400000F024F8002010BD0020024070B50D4DCB
:100B500004464FF47A712878B1FBF0F00A4909682D
:100B6000B1FBF0F001F03BF948B9102C07D200229C
:100B70002146501E00F02CF800206C6070BD012052
:100B800070BD0000500000205C000020094808B53E
:100B9000816941F001018161816901F001010091E8
:100BA000C16941F08051C161C06900F0805000907E
:100BB00008BD00000010024000F01F02012191401A
:100BC0004009800000F1E020C0F8001170470000EB
:100BD000F0B40E4B1B680C46C3F30223C3F10705A8
:100BE000042D00D90425191D072901D2002300E096
:100BF000DB1E012606FA05F1491E214099409E4060
:100C0000761E16403143F0BC01F0D1BE0CED00E081
:100C1000064900F0070208684FF6FF03184040EA53
:100C20000220034A10430860704700000CED00E00A
:100C30000000FA057047704770B501F07F05C5EBFD
:100C4000C50400EB84041E46C4E977230022C4F8DF
:100C5000E42184F8CD2184F8CC51D4F8D85104F59E
:100C6000E674AB4201D92B46F21A6261056840F284
:100C7000064201F07F0102EBC101B5F850604FF66A
:100C8000FF7235440D443E2B20D9C3F34F11DB06D0
:100C900019D000BF02EA812141F4004102E000BF07
:100CA00002EA812129802278016831F822004BF67E
:100CB0008F73184080F4405048F28003184321F8A5
:100CC0002200002070BD491E89B2E3E7C3F34F0143
:100CD000DB07E5D0491C89B2E2E770B5064601F0B2
:100CE0007F00C0EBC00106EB810400212164C4E950
:100CF0000E23012284F8292004F8280F1D46E068FD
:100D0000834203D90546181A606100E06161A07A48
:100D100038B12178306830F82110490612D522897F
:100D200011E0ABB2A2882169306801F0FBFF3068A6
:100D3000B0F8501040F202420844217802EBC101A1
:100D4000455220E0E288ABB2216901F0EBFF607808
:100D500048F68F7210B101280BD014E0207831686A
:100D600031F82030134048F2C002134321F82030FC
:100D700009E02178336833F8210010404CF28002FA
:100D8000104323F821002278316831F8220048F618
:100D9000BF73184080F0300048F28003184321F8F8
:100DA0002200002070BD10B504460068B0F8440071
:100DB000000402D5204601F00BFE2068B0F8441074
:100DC00049050AD54FF6FF31A0F84410204600F03F
:100DD000D3F80021204600F0D2F82068B0F8441083
:100DE000490403D54BF6FF71A0F844102068B0F811
:100DF0004410890403D54DF6FF71A0F84410206813
:100E0000B0F84410C90412D530F8401F21F0040195
:100E10000180206830F8401F21F008010180204641
:100E200000F0ABF821684EF6FF70A1F8440020688E
:100E3000B0F84410090518D530F8401F41F00801FA
:100E4000018021684FF2FF70A1F84400206830F85B
:100E5000401F41F0040101802068B0F84400C04305
:100E6000C00402D5204600F0A1F82068B0F8441074
:100E7000890506D54FF6FF51A0F84410204600F032
:100E80007DF82068B0F84410C90503D54FF6FF611E
:100E9000A0F8441010BD70B504004FF0000604D057
:100EA00094F87103002510B106E0012070BD84F8AC
:100EB0007053204600F042F8032084F871030122A9
:100EC0000CE0C6EBC60004EB800080F8292000F897
:100ED000286F761CC570C560056145616068B042C9
:100EE000EFD8002010E0C0EBC00104EB810181F8D5
:100EF000CD5181F8CC0181F8CF51C1F8D851C1F85A
:100F0000DC51401CC1F8E05161688142EBD8206897
:100F1000A0F840202068A0F840502068A0F8445075
:100F20002068A0F8505021684FF43F40A1F84000DD
:100F300084F8245084F87123002070BD08B500683F
:100F40000B49884212D10B48C16941F40001C161CB
:100F5000C069002200F40000009011461420FFF741
:100F600037FEBDE808401420FFF726BE08BD00008C
:100F7000005C00400010024070477047704790F8D6
:100F80007023012A0AD0012280F8702341B180F831
:100F90002410002180F87013084670470220704723
:100FA00002688021A2F84C10F3E7704770470000F8
:100FB0002DE9F84F044600689F4DC0036FD5E869DE
:100FC0000026C00008D4E86940F08050E861E86974
:100FD000012600F08050009098480168C90512D49D
:100FE0000168804641F480710160FFF77BFD074690
:100FF00005E000BFFFF776FDC01B642835D8D8F8A0
:101000000000C005F6D5286A10F4407053D0A188BE
:1010100001F4407181424ED0286A4FF4803191FA38
:10102000A1F2B2FA82F29700854A4FF00108174404
:1010300020F44070C7F8008491FAA1F1B1FA81F16F
:1010400002EB81010023C1F800342862C00732D0CE
:10105000FFF748FD074641F2883A4FF0020907E0E2
:10106000FFF740FDC11B514502D90320BDE8F88FB1
:1010700099FAA9F1B1FA81F141F040024846B8EB82
:10108000521F01D12A680CE090FAA0F2B2FA82F263
:1010900042F04002B0EB521F02D12A6A01E015E093
:1010A0006A6A99FAA9F0B0FA80F000F01F0008FA15
:1010B00000F10A42D4D0286A616820F440700843E5
:1010C00028621EB1E86920F08050E8612078C007EE
:1010D00005D0286BA16820F003000843286320781E
:1010E000800705D5286BE16820F440300843286369
:1010F0002078400705D5286B216920F4402008435B
:1011000028632078800605D5286BE16920F010005F
:10111000084328632068800305D56868616D20F462
:101120008000084368602078400605D5286B216A56
:1011300020F02000084328632068400305D5286B71
:10114000616A20F04000084328632078000705D535
:10115000286B616920F44010084328632078C0069A
:1011600005D5286BA16920F4400008432863208836
:10117000800505D56868216B20F40000084368608D
:101180002078000605D5E86AA16A20F4F8700843C3
:10119000E8622088C00505D5E86AE16A20F4785045
:1011A0000843E8622088C00405D5286B616B20F4F1
:1011B0008070084328632088800405D5286B216C43
:1011C00020F40070084328632068C00205D5286B0E
:1011D000A16B20F08070084328632068800205D549
:1011E000286BE16B20F00070084328632068400200
:1011F00005D5286B616C20F4806008432863206863
:10120000000205D5286BA16C20F400600843286318
:101210002068C00105D5286BE16C20F4005008431C
:1012200028632068800105D5286B216D20F40040DB
:1012300008432863002019E70010024000700040B6
:10124000000042422DE9F0470F46050069D04A4EA2
:10125000306800F00700B84209D2306820F007007B
:1012600038433060306800F00700B84259D1287820
:10127000424C800705D56068A96820F0F00008435B
:1012800060602878C0073DD06968012001290DD031
:10129000022923D05FF0020393FAA3F2B2FA82F29A
:1012A00042F02002520904D0226803E04FF40033D8
:1012B000F2E7626A93FAA3F3B3FA83F303F01F032E
:1012C000984002422DD0606820F00300084360601F
:1012D000FFF708FC804641F288390CE04FF00073BC
:1012E000DAE700BFFFF7FEFBA0EB0801494502D992
:1012F0000320BDE8F0876068696800F00C00B0EB7F
:10130000810FEFD1306800F00700B8420BD9306888
:1013100020F0070038433060306800F00700B84222
:1013200001D00120E5E72878400705D56068E96825
:1013300020F4E060084360602878000706D5606804
:10134000296920F4605040EAC100606000F04CF868
:101350006168F02292FAA2F201F0F001B2FA82F290
:10136000D140074A515CC840064908600020FFF799
:10137000EDFB0020BDE7000000200240001002400D
:10138000804700085C000020084809490068496857
:101390004FF4E06292FAA2F201F4E061B2FA82F252
:1013A000D140044A515CC840704700005C000020F6
:1013B0000010024090470008084809490068496841
:1013C0004FF4605292FAA2F201F46051B2FA82F242
:1013D000D140044A515CC840704700005C000020C6
:1013E0000010024090470008124B10B5596812488F
:1013F00001F00C02042A1CD0082A1AD14FF47014F0
:1014000094FAA4F401F47012B4FA84F4E2400B4CA0
:10141000DB6AA25C0F2494FAA4F403F00F03B4FA7D
:1014200084F4E340054CC9031034E35CB0FBF3F0F3
:10143000504310BD0010024000127A0060470008BF
:101440002DE9F84F04007DD02078FA4DC0074FF009
:10145000010637D068687704C0F38100012819D0ED
:101460006868C0F38100022804D16868C0F3C13005
:1014700002280FD06068B0F5803F24D010B1B0F5DD
:10148000A02F2AD0286820F480302860286820F413
:1014900080201BE097FAA7F0B0FA80F040F020001F
:1014A000400901D0286800E0686A97FAA7F1B1FA0C
:1014B00081F101F01F0106FA01F108424ED0606887
:1014C0000028C0D04AE0286840F480302860606876
:1014D00020B3FFF707FB80460AE0286840F480202D
:1014E0002860F0E7FFF7FEFAA0EB0800642873D845
:1014F00097FAA7F0B0FA80F040F02000400901D040
:10150000286800E0686A97FAA7F1B1FA81F101F062
:101510001F0106FA01F10842E4D01FE0FFF7E2FAEA
:10152000804605E0FFF7DEFAA0EB08006428DED86D
:1015300097FAA7F0B0FA80F040F02000400902D0FE
:10154000286801E0B9E0686A97FAA7F1B1FA81F179
:1015500001F01F0106FA01F10842E3D12078DFF81B
:10156000D88280074FF0000A4FF002075DD5686807
:101570004FF0F80B10F00C0F15D06868C0F3810025
:10158000022804D16868C0F3C13001280BD0E0689C
:10159000A0B396FAA6F0B0FA80F048F82060FFF702
:1015A000A1FA814620E097FAA7F0B0FA80F040F067
:1015B0002000400901D0286800E0686A97FAA7F186
:1015C000B1FA81F101F01F0106FA01F1084221D0C0
:1015D000E068012871D11DE056E100BFFFF782FAF3
:1015E000A0EB09000228A2D897FAA7F0B0FA80F081
:1015F00040F02000400902D0286801E016E0686A47
:1016000097FAA7F1B1FA81F101F01F0106FA01F191
:101610000842E3D028689BFAABF22169B2FA82F261
:1016200020F0F80091400843286024E096FAA6F1E3
:10163000B1FA81F148F821A0FFF754FA814605E09C
:10164000FFF750FAA0EB09000228CCD897FAA7F0D0
:10165000B0FA80F040F02000400901D0286800E096
:10166000686A97FAA7F1B1FA81F101F01F0106FA51
:1016700001F10842E4D1207800076AD56069A0B37F
:1016800096FAA6F0B0FA80F008EB8000C0F880640B
:10169000FFF728FA814605E0FFF724FAA0EB0900DE
:1016A0000228A0D897FAA7F0B0FA80F040F06000C6
:1016B000B6EB501F02D128680CE073E197FAA7F04F
:1016C000B0FA80F040F06000B7EB501F01D1286AFB
:1016D00000E0686A97FAA7F1B1FA81F101F01F0101
:1016E00006FA01F21042D7D033E0FFE796FAA6F0EF
:1016F000B0FA80F008EB8000C0F880A4FFF7F2F9A0
:10170000814605E0FFF7EEF9A0EB090002289CD81E
:1017100097FAA7F0B0FA80F040F06000B6EB501FE7
:1017200001D128680BE097FAA7F0B0FA80F040F0FA
:101730006000B7EB501F01D1286A00E0686A97FA91
:10174000A7F1B1FA81F101F01F0106FA01F210428E
:10175000D8D12078400774D5E8694FF00009C0005F
:1017600009D4E86940F08050E861E8694FF0010968
:1017700000F08050009031480168C90512D401681A
:1017800041F480710160FFF7ADF9834606E000BFC8
:10179000FFF7A8F9A0EB0B00642875D8274800686C
:1017A000C005F5D5A06801280AD008B1052811D0D8
:1017B000286A20F001002862286A20F0040002E074
:1017C000286A40F001002862A068C8B3FFF78AF9D0
:1017D00083460DE0286A40F004002862F0E700BF6D
:1017E000FFF780F9A0EB0B0141F2883081424BD822
:1017F00097FAA7F0B0FA80F040F04000B6EB501F27
:1018000001D128680BE097FAA7F0B0FA80F040F019
:101810004000B7EB501F01D1286A00E0686A97FAD0
:10182000A7F1B1FA81F101F01F0106FA01F21042AD
:10183000D6D035E000100240000042420070004067
:1018400000E034E0FFF74EF9834607E0FFF74AF97E
:10185000A0EB0B0141F28830814215D897FAA7F02E
:10186000B0FA80F040F04000B6EB501F01D128687C
:101870000CE097FAA7F0B0FA80F040F04000B7EB28
:10188000501F02D1286A01E089E0686A97FAA7F13F
:10189000B1FA81F101F01F0106FA01F21042D5D12F
:1018A000B9F1000F03D0E86920F08050E861A06929
:1018B00080B36968C1F38101022973D04FF0807150
:1018C0004F000228524609D091FAA1F0B0FA80F0F8
:1018D00048F82020FFF706F9044664E091FAA1F0E9
:1018E000B0FA80F08A46C14648F82020FFF7FAF89F
:1018F000804605E0FFF7F6F8A0EB080002284ED876
:1019000097FAA7F0B0FA80F040F02000400902D02A
:10191000286801E05CE0686A97FAA7F1B1FA81F102
:1019200001F01F0106FA01F10842E3D1E86A616A99
:1019300020F00F000843E862D4E907100843696803
:1019400021F47611084368609AFAAAF0B0FA80F0A0
:1019500049F82060FFF7C6F8044604E0FFF7C2F834
:10196000001B02281BD897FAA7F0B0FA80F040F0CD
:101970002000400901D0286800E0686A97FAA7F1C2
:10198000B1FA81F101F01F0106FA01F10842E5D038
:101990001EE000BFFFF7A6F8001B022803D90320B2
:1019A000BDE8F88F16E097FAA7F0B0FA80F040F0A3
:1019B0002000400901D0286800E0686A97FAA7F182
:1019C000B1FA81F101F01F0106FA01F10842E1D1FB
:1019D0000020E5E70120E3E770B5040002D0607F56
:1019E00010B106E0012070BD00202077204600F0F5
:1019F00049F8022060772168CA2048622168532094
:101A00004862204601F0D0F9FF25042618BB206863
:101A100081681B4A114081602168886862681043B0
:101A2000D4E904231A43104388602168E068086100
:101A300020680169228941EA024101612068C16888
:101A400021F08001C16020688068800607D42046AC
:101A500000F02CF818B1206845626677C2E720686C
:101A6000016C21F4802101642068016CA26911439A
:101A700001642068456201206077002070BD00008D
:101A8000BFFF8FFF0068074988420AD10120C103C8
:101A900091FAA1F1044AB1FA81F102EB8101C1F896
:101AA00000047047002800400000424270B5044620
:101AB0000068C16821F0A001C160FFF713F8054676
:101AC0004FF47A7607E000BFFFF70CF8401BB042F6
:101AD00001D9032070BD2068C0688006F4D50020BD
:101AE00070BD90F85D0070472DE9F041040005D00D
:101AF0000025A56294F85D0018B107E00120BDE85B
:101B0000F08184F85C50204600F049F8022384F804
:101B10005D302068016821F040010160E0684FF409
:101B2000E066B04201D9002101E04FF48051B0F5E8
:101B3000706F02D0B04200D0A562276B012227B996
:101B4000B04201D9236300E02263D4E901031843C2
:101B5000D4E9043633431843238B03F4007318434A
:101B6000E3691843236A1843A36A1843236818607B
:101B7000636B606AA66918430427E36807EA1646A0
:101B8000334318430843216848602068C16921F441
:101B90000061C161256684F85D200020AFE77047D1
:101BA0002DE9F05F044690F85C0000260A9F9946F4
:101BB00092460D464FF0010801280ED0012084F80E
:101BC0005C00FEF78FFF834694F85D006168012892
:101BD0000CD0B1F5827F07D102E00220BDE8F09F72
:101BE000A16809B9042801D00226F0E0002D79D0BF
:101BF000BAF1000FFBD0B9F1000FF8D094F85D00F6
:101C0000042802D0052084F85D0000202066C4F876
:101C100040A0A4F84690A4F84490A563A4F83E9090
:101C2000A4F83C90E0642065E0684FF4E0618842ED
:101C300003D8B4F84600012804D92068426822F489
:101C4000805203E02068426842F48052426020687B
:101C50000268520603D4026842F040020260E06863
:101C6000884260683FD910B1E08F012832D12168E5
:101C700035F8020BC860E08F401EE0872AE000BF05
:101C8000B8F1000F0DD0E08F58B120688168890746
:101C900007D535F8021BC160E08F401EE0874FF08A
:101CA0000008B4F8460068B120688168C90709D007
:101CB000C0682AF8020BB4F84600401EA4F846009B
:101CC0004FF00108781C05D0FEF70CFFA0EB0B00CD
:101CD000B84268D2E08F0028D2D1B4F8460000287C
:101CE000CED169E072E010B1E08F01285DD1E08FC4
:101CF000012806D9216835F8020BC860E08F801EE4
:101D000005E0206815F8011B0173E08F401EE08795
:101D10004BE000BFB8F1000F16D0E08FA0B12068F3
:101D20008168890710D5E18F012905D935F8021B93
:101D3000C160E08F801E04E015F8011B0173E08F85
:101D4000401EE0874FF00008B4F8460018B3206842
:101D50008168C9071FD0B4F84610012911D9C0689D
:101D60002AF8020BB4F84600801EA4F84600B4F826
:101D7000460001280DD82068416841F48051416037
:101D800007E0017B0AF8011BB4F84600401EA4F8E6
:101D900046004FF00108781C07D0FEF7A3FEA0EB29
:101DA0000B00B84201D3032611E0E08F0028B1D127
:101DB000B4F846000028ADD15A463946204601F015
:101DC00010F808B120202066206E00B10126012005
:101DD00084F85D00002084F85C003046FEE610B513
:101DE000401EB0F1807F01D3012010BD4FF0E024F0
:101DF00060610F21601700F0DAFD0020A06107206C
:101E00002061002010BD10B5040003D094F86900D3
:101E100010B107E0012010BD002084F868002046C2
:101E200000F026F8242084F869002068016821F079
:101E300001010160204601F097F90128EBD0606AAA
:101E400010B1204601F0FEF82068416821F490416D
:101E500041602068816821F02A0181602068016862
:101E600041F0010101602046BDE8104001F04EB98B
:101E700010B586B0044614216846FEF7D2F913491E
:101E8000206888421FD11248C16941F48021C16194
:101E9000C16901F480210591416941F480114161DA
:101EA0004069694600F4801005904FF4407000903E
:101EB000022001900020029003200390072004904C
:101EC0000448FEF71BFD06B010BD000000480040AE
:101ED00000100240000C00482DE9F843044690F839
:101EE00069001F4616460D4620284DD1CDB1C6B11A
:101EF00094F86800012847D0012084F868004FF06A
:101F00000008C4F86C80212084F869005034FEF782
:101F1000E9FD24F8026B814624F852694FF480569B
:101F200018E00120BDE8F883B4F85200401EA4F880
:101F300052004B46002280212046009701F000FA13
:101F4000A0B9A068B04201D1206988B115F8010B91
:101F500021680885B4F852000028E5D14B460022DC
:101F600040212046009701F0EBF930B10320D9E77A
:101F700035F8020BC0F30800EAE7202084F8690076
:101F800084F868800020CDE70220CBE710B5094C2B
:101F90004FF400412046FEF711FC4FF480412046EB
:101FA000FEF70CFC4FF400510348FEF707FC00203D
:101FB00010BD0000000C00480014004870B5174820
:101FC00086B0416941F4003141614069002400F468
:101FD000003005904FF4004000901148CDE9010415
:101FE000104E69463046FEF789FC4FF400500090D1
:101FF0000125CDE9015469460B480394FEF77EFCA8
:10200000A8030090CDE90154694630460394FEF7D9
:1020100075FCFEF7E3FA06B070BD00000010024048
:1020200000001110000C0048001400482DE9F04396
:1020300087B00E460746FF201AA18DF81400D1E99B
:102040000001CDE90301DFF8649000244FF48048DB
:10205000224641464846FEF740FD052201A903A855
:10206000FEF7FEFA9DF80400022812D1BDF80750D1
:102070007DB1B5420BD9354609E00122694605A874
:10208000FEF7EEFA9DF800003855641CE4B2AC424D
:10209000F3D3012241464846FEF71FFD07B0204614
:1020A000BDE8F0830B00000000000000000C0048B9
:1020B00070B50A4D4FF40054002221462846FEF721
:1020C0000CFD0520FEF748FB012221462846FEF7BD
:1020D00004FD0520FEF740FB002070BD0014004801
:1020E0002DE9FF5F8A4620A18346D1E90001CDE9B1
:1020F0000201FEF7F7FC1E4F05466FF001094FF095
:10210000FF384FF480460024224631463846FEF719
:10211000E4FC0522694602A8FEF7A2FA9DF8000039
:1021200002280DD04446012231463846FEF7D5FC40
:10213000FEF7D8FC401B0F280FD96FF002040EE009
:102140009DF801105046514505D3024609495846AD
:10215000FEF786FAE7E74C46E5E7002CD3DB04B050
:102160002046BDE8F09F00000A00000000000000CB
:10217000000C0048AC040020FEE7000030B587B03A
:1021800001210020FEF7D4F90020FEF75DF90020C0
:10219000FEF718F90020FEF7B9F9314C6070002104
:1021A000304801F0C5FE05A904A801F09BFE01F02E
:1021B0009DFF6420FEF7D0FABDF814209DF81010A2
:1021C00029A001F0F7F89DF810000125302800D96A
:1021D00025702A48224A0168C4F80A108088E081E4
:1021E0000A320621002001F018FE010002D024A0CE
:1021F00001F0E0F801F026FD10B129A001F0DAF8B5
:10220000174907220831881ECDE90001831E0021ED
:10221000012001F062FB10B126A001F0CBF82A48A2
:1022200000211022CDE90021CDE9020507230A464D
:10223000012001F08AFB10B924A001F0BBF829A00D
:1022400001F0B8F8FEF74CF840B12EA001F0B2F85A
:102250000421012001F0BDFD07B030BD31A0F5E73C
:102260000C00002039460008485776657220256426
:102270002C2046577665722025640A0038470008EE
:1022800053657474696E672042445F414444522030
:102290006661696C6564203078253032782E0A00DA
:1022A000474154545F496E6974206661696C656486
:1022B0002E0A00004741505F496E697420666169CB
:1022C0006C65642E0A00000040E20100424C45208B
:1022D000537461636B20496E697469616C697A65D6
:1022E000642E0A005345525645523A20424C45202E
:1022F000537461636B20496E697469616C697A65B6
:10230000640A00004572726F72207768696C6520FC
:10231000616464696E6720736572766963652E0A0D
:10232000000000005365727669636520616464652E
:1023300064207375636365737366756C6C792E0ABC
:1023400000000000F8B5194E3078194C002530B166
:1023500000F050F935700020FEF7D8F8607000F0FA
:10236000F5FCA078D8B13220FEF7F6F90020FEF790
:10237000CDF86178B9B100218842F7D03220FEF75C
:10238000EBF90C48006848B10B48007830B10BA05D
:10239000012100680090684602F0E8F8A570BDE8E9
:1023A000F84001F0CBBF0121E6E700001C0000204F
:1023B0000C000020300000201D00002070000000F4
:1023C0002DE9F04F87B014216846FDF72AFF5948E0
:1023D000416941F400214161416901F40021059105
:1023E000416941F480014161416901F48001059135
:1023F000416941F400314161416901F400310591C5
:10240000416941F480214161416901F480210591D4
:10241000416941F480114161416901F480110591E4
:10242000416941F4000141614069DFF80CA100F409
:1024300000000590002244F281015046FEF74DFB5A
:10244000DFF8F8B04FF40056002231465846FEF748
:1024500044FB4FF48048002241463948FEF73DFBDB
:10246000002240213748FEF738FB4FF40079012263
:1024700049463548FEF731FB344F00240096CDE93C
:10248000017469463048FEF739FA01250095CDE917
:102490000154694650460395FEF730FA0096CDE99F
:1024A0000154694658460394FEF728FA4FF48140D8
:1024B0000090CDE90154694650460394FEF71EFA98
:1024C000CDF80080CDE9015469461D480394FEF71C
:1024D00015FAE803CDE90007694602941848FEF7AB
:1024E0000DFA40200090CDE9015469461548039447
:1024F000FEF704FA8020CDE90004694611480294F1
:10250000FEF7FCF9CDF80090CDE9015469460E487C
:102510000395FEF7F3F96804FEF7EAFA0022114684
:102520002820FEF755FB2820FEF746FB07B0BDE844
:10253000F08F000000100240000400480014004822
:10254000000C004800180048000800480000111066
:1025500010B50F4901604FF48271416000244FF4BF
:10256000E062C0E902424FF400720461C0E9054232
:102570001822C0E9072407224462C0E90A42082160
:10258000C0E90C41FFF7B0FA00B10124204610BDAC
:102590000030014010B50A49016000244FF4E131D8
:1025A000C0E901140C22C460C0E904428461C46122
:1025B00004624462FFF727FC00B10124204610BDED
:1025C000004400400948084901604FF4E13141608E
:1025D000002181600C22C160C0E904128161C161E7
:1025E00001624162FFF70FBC0048004094000020E8
:1025F000FEE7000070B588B00021344801F098FC77
:1026000001F074FD6420FEF7A7F83248304D0168F0
:10261000C5F80A108088E88105F10A020621002029
:1026200001F0FBFB010002D02BA000F0C3FE01F083
:1026300009FB10B130A000F0BDFE2549072208318A
:10264000881ECDE90001831E0021012001F045F91B
:1026500010B12EA000F0AEFE00240126304810215B
:10266000CDE90014CDE90206072322462146304673
:1026700001F06BF910B92BA000F09CFEEE702FA0BA
:1026800000F098FEFDF72CFEE8B134A000F092FEB9
:102690000421012001F09DFB0021084601F0B4FC5B
:1026A0000C48059403940494801D0D210694009415
:1026B000CDE9011000234FF480525110184601F06B
:1026C0007EF908B070BD2DA0E0E700003946000893
:1026D0000C0000203847000853657474696E672049
:1026E00042445F41444452206661696C6564203015
:1026F00078253032782E0A00474154545F496E697C
:1027000074206661696C65642E0A00004741505F61
:10271000496E6974206661696C65642E0A00000068
:1027200040E20100424C4520537461636B20496EC6
:10273000697469616C697A65642E0A005345525662
:1027400045523A20424C4520537461636B20496ED8
:10275000697469616C697A65640A00004572726F18
:1027600072207768696C6520616464696E672073A4
:102770006572766963652E0A000000005365727603
:102780006963652061646465642073756363657360
:102790007366756C6C792E0A0000000070B58AB003
:1027A0000021434801F0C4FB01F0A0FC6420FDF7C8
:1027B000D3FF41483F4D0168C5F80A108088E88181
:1027C00005F10A020621002001F027FB010002D0DA
:1027D0003AA000F0EFFD01F035FA10B13FA000F093
:1027E000E9FD344907220831881ECDE90001831E26
:1027F0000021042001F071F810B13DA000F0DAFDD5
:102800000024102201213F48CDE90024CDE9020136
:10281000072322462146012001F097F810B93AA07B
:1028200000F0C8FDFDF75CFD00283FD03CA000BFD4
:1028300000F0C0FD0421012001F0CBFA404E20B190
:10284000012211463046FEF748F90421012001F02B
:10285000C0FAEC703BA000F0ADFD41A1D1E9000150
:10286000CDE907010020FDF72BFE4FF4FA603C2173
:10287000CDE9041006902820CDE9004002904FF4E5
:102880008040039407AB0022014600F0E4FF0028DB
:102890000AD035A000F08EFD6420FDF75DFF012217
:1028A00011463046FEF719F90AB070BD37A0BFE7F0
:1028B000394600080C00002038470008536574743E
:1028C000696E672042445F41444452206661696CEE
:1028D0006564203078253032782E0A004741545400
:1028E0005F496E6974206661696C65642E0A000038
:1028F0004741505F496E6974206661696C65642E5A
:102900000A00000040E20100424C4520537461631C
:102910006B20496E697469616C697A65642E0A007E
:102920004572726F72207768696C652061646469B2
:102930006E6720736572766963652E0A0000000079
:1029400000040048436C69656E74204372656174CD
:102950006520436F6E6E656374696F6E0A000000D8
:10296000020000E180AA00004572726F7220776851
:10297000696C65207374617274696E6720636F6E31
:102980006E656374696F6E2E0A000000536572767F
:10299000696365206164646564207375636365734E
:1029A0007366756C6C792E0A000000007047090789
:1029B000090E002806DA00F00F0000F1E02080F890
:1029C000141D704700F1E02080F8001470470000EB
:1029D0002DE9FC5F00270446ADF8007048F60F7A39
:1029E00040F2064B40F202487AE100BFBDF8041005
:1029F00011F00F062CD030F82610ADF80010BDF8FD
:102A00000010090474D530F8261040F68F7211407A
:102A100020F82610C6EBC60004EB800595F8D60119
:102A200005F5E675002820687ED0297830F8212049
:102A30005204B0F8502002EB000376D508EBC10138
:102A4000595AC1F309015FEA01096FD0EA88BEE073
:102A5000BDF80410C90628D4028802EA0A020280DE
:102A6000206804F12805B0F850100A18297808EBFE
:102A7000C100105AC0F309002064A16B0844A06390
:102A800000212046FEF7D6F894F824000028ABD0A9
:102A900068690028A8D194F82400216840F08000DB
:102AA000A1F84C0084F824701AE1018804F5E67559
:102AB000ADF80010BDF8001009051AD5B0F8501097
:102AC0002A7801440BEBC200085A04F55D71C0F38B
:102AD0000903AB61AA88206800F010F92068028819
:102AE00040F68F710A4002802046FEF75EFAF7E05A
:102AF00093E0BDF800100904D6D5018840F68F7226
:102B0000114001802068B0F850102A7801440BEB86
:102B1000C200085A83059B0DAB610CD0AA882969B5
:102B2000206800F0EBF802E036E047E053E0296966
:102B3000A8690844286100212046FEF77CF8206837
:102B4000B0F850100A18E86802F206423E280CD984
:102B5000C0F34F11C00601D1491E89B24FF6FF7074
:102B600000EA812040F4004009E0C0F34F01C007B3
:102B700001D0491C89B24FF6FF7000EA8120108015
:102B8000206801884BF68F72114081F4405148F261
:102B9000800211430180A3E0B0F850102A780B188E
:102BA0000BEBC201595AC1F309015FEA01091ED0BA
:102BB000AA884B46296900F0A1F818E00BEBC10187
:102BC000595AC1F309015FEA010904D02A894B4629
:102BD000296900F093F82A78216831F8223048F604
:102BE0008F70034048F2C000034321F82230A969E6
:102BF00001EB0900A861296901EB09022A616B69EF
:102C000013B1E968494504D929782046FEF713F83D
:102C100003E029782046FEF70FF8BDF80000000613
:102C20005ED5C6EBC60004EB8005206830F8262090
:102C300002EA0A0220F8262095F8320028350028FA
:102C4000206810D0297830F821205206B0F85020A2
:102C5000024419D508EBC100105A83059B0DAB61E6
:102C60001ED0EA8818E0B0F850102A78014408EB2A
:102C7000C200085A83059B0DAB611DD0AA88296943
:102C8000206800F04FF817E00BEBC100105A8305E5
:102C90009B0DAB6104D02A892969206800F042F8B5
:102CA0002878216831F8202048F68F731A404CF2BA
:102CB00080031A4321F820202068B0F850102A78A9
:102CC000014408EBC200085AC0F30900A861296951
:102CD0000A182A6129786B69204663B1FDF7FDFF68
:102CE0002068B0F84410ADF8041009043FF57EAE3A
:102CF0000020BDE8FC9FFDF79DFFF1E710B51044F3
:102D00005C0800F5806008D030F8022B01F8012B38
:102D1000120A01F8012B641EF6D1DA0701D00078FF
:102D2000087010BD10B55B1C10445B0800F5806096
:102D30000AD000BF11F8012B5B1E11F8014B42EACB
:102D4000042220F8022BF5D110BD704770B5124C4B
:102D50002068124E124D08B1307820B1206838B189
:102D6000287818B104E001F043FC01E001F01CFCFC
:102D7000206800280FD0307800280CD02878002850
:102D800009D008480078002805D1FDF789FBBDE887
:102D9000704001F071B870BD3000002020000020AC
:102DA000210000201D00002070B504460068C168A5
:102DB000490614D44FF0FF31C160FDF793FE05467C
:102DC0004FF47A7607E000BFFDF78CFE401BB0425F
:102DD00001D9032070BD2068C0684006F4D50020EA
:102DE00070BDF8B515460E460B460092044600220B
:102DF0004FF4C05100F019F888B933460022802101
:102E00002046009500F060F848B9334600224FF4A0
:102E1000C0612046009500F008F8002804D0206E1C
:102E200040F0200020660320F8BD2DE9F8431D4640
:102E300017460E4604464FF4C068DDF820903CE08B
:102E4000464505D127B9007B8DF800009DF80000AC
:102E5000681C32D02DB1FDF745FEA0EB0900A84259
:102E60002BD32068416821F0E00141606068B0F533
:102E7000827F0BD1A068B0F5004F02D0B0F5806F13
:102E800004D12068016821F040010160A06AB0F51A
:102E9000005F09D12068016821F4005101602068B9
:102EA000016841F400510160012084F85D000020B8
:102EB00084F85C000320BDE8F88320688168314015
:102EC000B942BDD10020F6E72DE9F0411D46174675
:102ED0000E460446DDF8188034E0681C32D02DB16F
:102EE000FDF700FEA0EB0800A8422BD32068416844
:102EF00021F0E00141606068B0F5827F0BD1A068ED
:102F0000B0F5004F02D0B0F5806F04D120680168A1
:102F100021F040010160A06AB0F5005F09D120688E
:102F2000016821F4005101602068016841F40051FA
:102F30000160012084F85D00002084F85C0003201B
:102F4000BDE8F0812068806836EA000004D00020E7
:102F5000B842C2D10020F3E70120F9E77047FDF73E
:102F6000DBBD000030B5A5B0282116A8FDF759F942
:102F7000142120A8FDF755F958216846FDF751F9AD
:102F8000092016904FF4A0201790012002251990D7
:102F9000CDE91B0500041D904FF4E0100024CDE99D
:102FA0001E0416A8FEF74CFA0F20CDE92005680292
:102FB000CDE92240022120A82494FEF743F90648D7
:102FC0000090280215940190039404946846FDF73C
:102FD000EFFF25B030BD0000060003001448016873
:102FE00041F4700101601348016841F00101016082
:102FF0004168114A114041600168104A1140016066
:10300000016821F480210160416821F4FE014160E2
:10301000C16A21F00F01C162016B094A11400163CD
:10302000002181600249C0038039086070470000B8
:1030300088ED00E0001002400CC07FF8FFFFF6FEB4
:10304000CCFC00FF90F82410C90706D001684A683C
:10305000836A22F400321A434A6090F824108907E8
:1030600006D501684A68C36A22F480321A434A606E
:1030700090F82410490706D501684A68036B22F4CA
:1030800080221A434A6090F82410090706D5016887
:103090004A68436B22F400421A434A6090F82410B5
:1030A000C90606D501688A68836B22F480521A43E8
:1030B0008A6090F82410890606D501688A68C36B77
:1030C00022F400521A438A6090F82410490611D560
:1030D00001684A68036C22F480121A434A60016C4A
:1030E000B1F5801F06D101684A68436C22F4C00222
:1030F0001A434A6090F82410090606D501684A6808
:10310000806C22F4002202434A607047F8B5002622
:103110000446C666FDF7E6FC0546206800686FF0C9
:103120007E47000708D52B4600224FF400112046A9
:10313000009700F005F960B92068006840070AD5DB
:103140002B4600224FF480012046009700F0F8F84B
:1031500008B10320F8BD202084F8690084F86A00D3
:1031600084F868600020F8BD2DE9F0410446102085
:103170002369A268E6691A436369002133431A434D
:1031800023680D461E68654F3E4016431E60226848
:103190005368E66823F4405333435360236AA269BB
:1031A0001A4323689E6826F4306616439E605C4F7F
:1031B00022685C4B0603BA420CD11B6B13F003036D
:1031C00006D0012B4DD0022B4DD0032B4CD146E025
:1031D000012049E0544FBA420CD11B6B13F4403329
:1031E0003BD0B3423DD0B3F5003F3CD0B3F5403FB8
:1031F0003AD134E04D4FBA420DD11B6B13F440234A
:103200002BD0B3F5802F2CD0B3F5002F2BD0B3F5F6
:10321000402F29D123E0464FBA420DD11B6B13F446
:1032200040131AD0B3F5801F1BD0B3F5001F1AD07E
:10323000B3F5401F18D112E03E4FBA4214D11B6BB8
:1032400013F4400309D0B3F5800F0AD0B3F5000F93
:1032500009D0B3F5400F07D101E0002004E00220BF
:1032600002E0042000E00820E7694FF400439F4299
:1032700027D109281ED2DFE800F00508131D161D0E
:103280001D1D1900FEF780F801E0FEF795F84100DA
:10329000D4F8040001EB5001B1FBF0F081B20AE078
:1032A00025496068F6E7FEF79FF8F0E7606806EBEF
:1032B0005001F1E7012521F00F00C1F3420108435D
:1032C0001CE0092825D2DFE800F005080B241024B3
:1032D00024241C00FEF758F809E0FEF76DF806E01C
:1032E0001649606801EB50010EE0FEF77DF80146DB
:1032F000606801EB5001B1FBF0F080B22168C8605A
:1033000008E0606803EB5001B1FBF0F080B2D060E0
:1033100000E001252846BDE8F0810000F369FFEFD9
:1033200000380140001002400044004000480040C6
:10333000004C0040005000400024F40000127A00CD
:103340002DE9F041984617460E460446069D1DE0BD
:10335000681C1BD02DB1FDF7C5FBA0EB0800A842EF
:1033600014D92068016821F4D07101602068816857
:1033700021F001018160202084F8690084F86A004E
:10338000002084F868000320BDE8F0812068C0694F
:1033900036EA000004D00020B842D9D00020F3E77C
:1033A0000120F9E70148FDF7FEBC00000401002000
:1033B000FEE700000FB4054B10B503A9044A0298BC
:1033C00000F018F810BC5DF814FB0000BD3E0008CA
:1033D0007000002002E008C8121F08C1002AFAD1BC
:1033E00070477047002001E001C1121F002AFBD185
:1033F000704700002DE9FF4F8DB00F4605460026AF
:1034000006E025280BD0DDE90F1290476D1C761CD5
:1034100028780028F5D111B03046BDE8F08F00249F
:10342000A246A1460122EC4900E0044315F8013F01
:10343000203B02FA03F00842F7D128782A2810D05E
:103440006FF02F022878A0F13001092914D80AEB77
:103450008A0102EB410144F0020400EB010A6D1CF9
:10346000F0E701CF5FEA000A03D544F40054CAF143
:10347000000A44F002046D1C28782E2817D115F894
:10348000010F44F004042A280ED06FF02F02287890
:10349000A0F1300109290AD809EB890102EB4101A9
:1034A00000EB01096D1CF2E757F8049B6D1C2878AE
:1034B0006C280FD006DC4C2817D068280DD06A285D
:1034C00014D104E0742810D07A280FD10DE044F410
:1034D00000140AE044F4801401E044F440146978D4
:1034E000814202D104F580146D1C6D1C2A786E2A6D
:1034F0001FD00CDC632A31D004DC002A8BD0582A80
:1035000011D1A3E0642A68D0692A0CD165E0732A3E
:103510002ED004DC6F2A73D0702A04D19BE0752A68
:103520006FD0782A6ED01046DDE90F129047761CD6
:1035300050E1C4F30250022806D0032809D0042821
:1035400001CF09D0066045E101CFF117C0E9006164
:1035500040E101CF06803DE106703BE117F8040B26
:103560008DF8000000208DF80100EB46012003E0FB
:1035700057F804BB4FF0FF3061074FF0000102D451
:103580000DE008F10101884649450FDA8045F8DB76
:103590001BF808100029F4D108E008F10101884661
:1035A0008142FADB1BF808100029F6D1DDE90F2370
:1035B000AAEB08008146214600F036F9304400EBC2
:1035C000080604E0DDE90F121BF8010B9047B8F183
:1035D0000108F7D221464846F7E00A21C4F3025316
:1035E0004FF0000B0891022B04D001CFC117032B21
:1035F00009D00AE0FF1D27F00707F7E8020108E0FD
:1036000032E01FE020E000B2C117042B01D140B22C
:10361000C117031E71F1000307DA4FF0000CD0EB65
:103620000C006CEB01012D2302E0230504D52B23B4
:103630008DF82430012303E0E30701D02023F7E7CE
:10364000984658E00A2110E010210EE010204FF0BB
:10365000000B08900CE010214FF0000B44F0040424
:103660004FF00809089103E008214FF0000B089182
:10367000C4F30253022B04D001CF0021032B06D048
:1036800006E0FF1D27F00707F7E8020103E080B21C
:10369000042B00D1C0B24FF0000823072BD5702AAD
:1036A00007D0DDF820C08CF0100C5CEA0B0C05D0C4
:1036B0000EE040238DF82430012308E050EA010396
:1036C00006D030238DF824308DF82520022398462B
:1036D000DDF820C08CF0080C5CEA0B0C0BD150EA32
:1036E000010301D1630706D530238DF824304FF054
:1036F0000108A9F10109582A04D038A20B9208AA9E
:103700000A920BE03AA2F9E75B46089AFCF794FDAF
:103710000B9B9B5C0A9A521E0A92137050EA01029C
:10372000F2D10A98ADEB000000F1200B600702D542
:1037300024F4803401E04FF00109D94502DDA9EB02
:103740000B0000E0002000EB0B0141440890AAEBC5
:10375000010AE00306D4DDE90F232146504600F0BC
:1037600063F806444FF0000908E009A911F80900C0
:10377000DDE90F12904709F10109761CC145F4DB20
:10378000E0030CD5DDE90F232146504600F04CF84C
:10379000064404E0DDE90F1230209047761C0899BA
:1037A000481E08900029F5DC08E00A980A9900787C
:1037B000491C0A91DDE90F129047761CBBF100010C
:1037C000ABF1010BF1DC21465046DDE90F2300F09F
:1037D00019F806446D1C1BE609280100303132330C
:1037E000343536373839616263646566000000003D
:1037F0003031323334353637383941424344454627
:10380000000000002DE9F041044600251E46174641
:10381000880404D405E039462020B0476D1C641E9E
:10382000F9D52846BDE8F0812DE9F0410446002590
:103830001E469046C80301D5302700E020278804A3
:1038400004D505E041463846B0476D1C641EF9D5E5
:103850002846BDE8F0812DE9F0438DB00DF1500E02
:103860009EE8F013ADF80000ADF802108DF80420CA
:103870001868CDF805009888ADF80900ADF80C502F
:10388000ADF81070ADF814908DF80B40ADF80E60E7
:10389000ADF81280ADF816C0182106A8FCF7C1FCDF
:1038A0003F20ADF818009C20ADF81A0018200990B0
:1038B0000F2007900CA80A9001200B90CDF820D083
:1038C000002106A800F02EFC002803DAFF200DB02E
:1038D000BDE8F0839DF83000F9E770B58AB01C466A
:1038E0008DF82000DDE90E6500208DF82110009094
:1038F00001908DF82220182102A8FCF792FC3F20AD
:10390000ADF808008A20ADF80A0008A8049003204A
:10391000059007200790CDF818D0002102A800F0EC
:1039200001FC002802DAFF200AB070BD9DF80000FB
:103930000028F9D1BDF801002080BDF803003080D7
:10394000BDF8050028800020EEE72DE9F0438FB098
:103950001D46134616AA6C4692E8C0038DF8000077
:103960008DF8011010221946A01CFCF741FC8DF8BF
:1039700012508DF813608DF81470CDF815808DF805
:103980001990182107A8FCF74CFC3F20ADF81C004B
:103990008620ADF81E001A20CDE909400DA80B9035
:1039A00001200C90002107A800F0BCFB002803DADE
:1039B000FF200FB0BDE8F0839DF83400F9E72DE952
:1039C000FF4192B01EACDDE91C2594E84201AC1920
:1039D0000E34282C03D9422016B0BDE8F0818DF8B2
:1039E0001C00BDF84C00ADF84C0080B2ADF81D00D5
:1039F000BDF85000ADF8500080B2ADF81F008DF852
:103A000021308DF8222007AC01278DF8235009A81A
:103A10002A46FCF7EDFB0835E8B232462654401C36
:103A2000C5B260194146FCF7E3FBBDF88410A81944
:103A3000ADF88410C0B22118BDF884200A80BDF80A
:103A40008810801CADF88810C0B22118BDF88820FD
:103A5000801C0A80C5B2182101A8FCF7E2FB3F20B8
:103A6000ADF804008320ADF8060011A8CDE904509C
:103A700000210697039401A800F054FB002801DA06
:103A8000FF20A9E79DF84400A6E72DE9FF4F8FB07E
:103A90001F46DDE92089BDF83C00DDF878A0ADF8CF
:103AA0003C0080B2DDF870B0ADF81C000326134670
:103AB00007AD8DF81E10012937D010242246194673
:103AC000E81CFCF795FBE41C2F55641C05F804B0BA
:103AD000641C1D982855641CE0B205F800A0401C29
:103AE000C0B21F992954401CC0B2182105F80080AB
:103AF000401CC4B20020009001A8FCF792FB3F20BC
:103B0000ADF804004FF48270ADF806006846CDE9C8
:103B1000044000210696039501A800F003FB00284D
:103B200005DAFF2013B0BDE8F08F0224C6E79DF848
:103B300000000028F6D1BDF80110A9F80010F1E747
:103B40002DE9F0418CB01E46DDF84880174607ADE0
:103B50008DF81C00012826D010242246681CFCF792
:103B600047FB641C00202F55641C18212E55009023
:103B700001A8641CFCF755FB3F20ADF804004FF48E
:103B80008170ADF806006846CDE904400320069038
:103B90000395002101A800F0C5FA002805DAFF20EE
:103BA0000CB0BDE8F0810224D7E79DF800000028A2
:103BB000F6D1BDF80110A8F80010F1E73FB58FB0BD
:103BC0006C46BDF83C00ADF83C0080B2ADF800009A
:103BD000BDF84000ADF8400080B2ADF80200169983
:103BE000BDF84400ADF8440080B2ADF804008DF893
:103BF0000630012B21D010252A46E01DFCF7F8FAEB
:103C0000182106A8ED1DFCF70CFB3F20ADF81800AD
:103C10004FF48B70ADF81A0007AA0F2082E831002C
:103C20000CA80A9001200B90002106A800F07AFA57
:103C3000002804DAFF2013B030BD0225DCE79DF830
:103C40003000F8E700B587B018216846FCF7E9FABC
:103C50003F20ADF8000040F20110ADF8020006A8C8
:103C60000490012005900021684600F05BFA0028CE
:103C700002DAFF2007B000BD9DF81800FAE73FB553
:103C8000A7B09D1D2E99802D02D942202BB030BDAA
:103C9000BDF89C00ADF89C0080B2ADF80000BDF806
:103CA000A000ADF8A00080B28DF804206C46ADF8FD
:103CB00002008DF805301A46A01DFCF799FAEDB206
:103CC000182120A8FCF7ADFA3F20ADF880004FF492
:103CD0008370ADF8820026A82294CDE923500120FC
:103CE0002590002120A800F01DFA002801DAFF200D
:103CF000CCE79DF89800C9E73FB5541DA7B0194619
:103D0000802C02D942202BB030BDBDF89C00ADF80C
:103D10009C0080B2ADF80000BDF8A000ADF8A00096
:103D200080B26D46ADF802008DF80420681DFCF7E6
:103D30005FFAE4B2182120A8FCF773FA3F20ADF82F
:103D4000800040F22110ADF882000F20CDE921055E
:103D500026A8CDE9234001202590002120A800F0CD
:103D6000E1F9002801DAFF20CDE79DF89800CAE7C5
:103D700030B58FB01446142A02D942200FB030BD9E
:103D8000ADF80000ADF802106D468DF804402246F3
:103D90001946681DFCF72CFA182107A8FCF741FA10
:103DA0003F20ADF81C0040F22310ADF81E000DA816
:103DB000641DCDE90A4001200C900995002107A857
:103DC00000F0B0F9002801DAFF20D7E79DF83400B1
:103DD000D4E700B589B08DF81C008DF81D101821AE
:103DE0006846FCF71EFA3F20ADF800000F20ADF842
:103DF000020007A802900220039006A80490012068
:103E000005900021684600F08DF9002802DAFF20B5
:103E100009B000BD9DF81800FAE770B58D1CA8B078
:103E20001346802D02D9422028B070BD8DF80000C5
:103E30006C468DF801100A4601261946A01CFCF7B5
:103E4000D7F9EDB2182120A8FCF7EBF93F20ADF827
:103E500080000C20ADF8820026A825962294CDE99A
:103E60002350002120A800F05DF9002801DAFF208E
:103E7000DAE79DF89800D7E7F8B50EA00068009043
:103E8000FCF730FE04460C4D42F2107605E000BF10
:103E9000FCF728FE001BB04209D868896B46801CDD
:103EA00081B202222889FFF727FF4628F0D001209F
:103EB0006870F8BD010000001C00002013B5074821
:103EC00007494FF47A7300780122C0EBC00001EB80
:103ED00000106946FEF700F800981CBD380000206D
:103EE0001006002030B587B0054601A80C460090AA
:103EF00005AB04AA02A903A800F048F810F0FF00DF
:103F000014D1BDF80810090A2970BDF8081009027B
:103F10002180BDF80420C2F3031241EA021121807E
:103F2000BDF8042002F00F021143218007B030BD1C
:103F300070B5134D00B1E86100F0B8F9114800F018
:103F400029FA1048083000F025FA0F4E002400BF6F
:103F5000C4EBC40000EB800006EB8001094800F0D0
:103F600028FA641CE4B2052CF2D3296809B10020B8
:103F70008847A868002802D0BDE87040004770BD9F
:103F80003C09002060000020800600202DE9F0435D
:103F900089B000240F468046DDF840901D46164645
:103FA00000940194182103A80294FCF73AF9042024
:103FB000ADF80C000120ADF80E006846CDE90640D2
:103FC000092008900594002103A800F0ABF8002810
:103FD00003DAFF2009B0BDE8F0839DF80000002857
:103FE000F8D19DF8011088F80010BDF80200388063
:103FF0009DF804003070BDF805002880BDF807105A
:10400000A9F800100020E5E730B58FB00D46044652
:1040100020216846FCF705F98DF800401F2C00D9D7
:104020001F2422466C462946601CFCF7E1F8182143
:1040300008A8FCF7F6F80820ADF820000920ADF834
:1040400022002020CDE90A400EA80C9001200D90FE
:10405000002108A800F066F8002802DAFF200FB05F
:1040600030BD9DF83800FAE738B5002004460090CE
:10407000154800F0AAF910B10124204638BD694660
:10408000114800F0AEF91148C268002AF5D0009836
:10409000802108309047009910F0FF000FD081F880
:1040A00088000B7A01F10802042B08D19278C01E17
:1040B000824204D10448083000F07BF9DDE7024871
:1040C00000F06BF9D9E70000600000203C090020F7
:1040D000054902680A60C268CA6002690A618269A9
:1040E0008A618068886070473C09002000B587B00D
:1040F00018216846FCF795F80320ADF80000ADF8EC
:10410000020006A80490012005900021684600F0F6
:1041100009F8002802DAFF2007B000BD9DF818005A
:10412000FAE700002DE9F0410F4604460188408877
:10413000A8B061F39F2085B24FF0000826A8CDF803
:10414000908000F027F908E06946564800F049F9E8
:1041500054480099083800F02CF95248083800F00B
:104160000BF90228F0DB22886088267B62F39F200F
:10417000A168ADF8840001208DF886608DF80000FC
:10418000BDF88400ADF801008DF80360324601A847
:10419000FCF72EF84448026912B1311D6846904779
:1041A0001FB1002028B0BDE8F0814FF47A7600BF3F
:1041B000FCF798FC4FEA0007FCF794FCC01BB042E8
:1041C00062D8384800F001F90028F5D124A9354813
:1041D00000F007F9249800F10803017A04293ED180
:1041E00090F888205878D91CD21E0E2814D00F2899
:1041F00004D0102848D03E2831D118E04888A84281
:1042000042D160680F2802D00878A8BB27E0606917
:1042100009E06261206916E0B1F80100A84233D1DB
:10422000C91C6069D21E9042F3D80246F1E70878B3
:104230006368984213D16069521E904200D80246CA
:104240006261491C2069FBF7D3FF1648249908389E
:1042500000F0A3F826A9134800F03CF9A1E71148A3
:10426000083800F0B2F840B10E4800F0AEF820B1C6
:104270000C482499083802E006E026A8249900F0AA
:1042800098F8CDF8908093E7249919B1054808383B
:1042900000F083F826A9034800F01CF94FF0FF3026
:1042A00080E70000680000203C09002000B587B0CE
:1042B0001048009010480190104804901048039056
:1042C00010480290104806906846FFF701FF0F491A
:1042D0000F48FCF753FA0F4A00210D48FCF766FA25
:1042E000002211462820FCF773FC2820FCF764FC10
:1042F00007B000BDBD1F00088D1F0008E1200008A9
:104300002D200008B1200008450400080F00000619
:10431000040000201943000870B5074D4FF4004415
:1043200021462846FCF7D0FB012804D10020FFF7E6
:104330009BFE0028F4D070BD000C004838B500206A
:104340000B4C00900DE069460A4800F04AF8E1691C
:1043500011B100980830884706480099083800F0E5
:1043600028F8044800F031F80028ECD038BD0000EF
:104370003C0900206800002003460020EFF3108174
:1043800072B61A6801E01268401C9A42FBD181F3B0
:1043900010887047006040607047EFF3108272B67B
:1043A0000368C1E900300160086882F31088416049
:1043B0007047EFF3108272B6086043684B6041604B
:1043C000486882F3108801607047EFF3108172B67D
:1043D0000268824201D1012000E0002081F31088B0
:1043E000704730B50D46EFF3108472B6016829604E
:1043F000006800F008F8296800200860296884F344
:104400001088486030BDEFF3108172B6D0E9002308
:104410001A6005C881F310884260704730B50D46B8
:10442000EFF3108472B6416829604068FFF7EBFF34
:10443000296800200860296884F31088486030BD2E
:10444000FCF772FBFEF78EFDFDF7BAFF1D481C4915
:104450000024C0E900147F218160FF21C0E903141A
:1044600044618461FDF7B8FAFEF7ACF815481649C7
:104470009030016008214160022181608461C46143
:1044800004620161FCF707FDFDF778FEFEF7B2F864
:1044900042F210752846FCF75FF9FEF77FF90B4EE4
:1044A00034700B4C5FF00107FDF74CFF0120FCF767
:1044B00053F92068401C2060A842F5D13770F3E71B
:1044C0000028004074000020005C00401C00002018
:1044D0000000002038B50C46054607E06946204636
:1044E000FFF79CFF28460099FFF757FF2046FFF78C
:1044F0006CFF0028F2D038BD2DE9F05F06460F466C
:104500000020FBF7EDFF0024144D4FF001084FF49D
:10451000804ADFF84CB0A14609E0315D11A0FEF7FA
:1045200049FF305D402807D085F80790641CBC42E5
:10453000F3DBE87938B10BE085F80780514658463F
:10454000FCF7C7FAF2E705480121801D00F00EF8DC
:10455000BDE8F05F0448FBF739BE00001C000020F6
:1045600000040048256300007000002038B50C4AA4
:104570000C4C1278012A0BD0A2890346521C95B22A
:104580000A462089294601B0BDE83040FFF7F0BB5C
:1045900000900B460022218AE089FFF770FB38BDAE
:1045A0000F0000201C00002010B50C4C86B0E078F5
:1045B000002810D10AA30DF1040C0FCB8CE80F00DA
:1045C00001A8009002234FF6FF7201212089FFF716
:1045D000F5FA0120E07006B010BD00001C000020BC
:1045E000669A0C200008969EE2119EB1E2F273D901
:1045F00010B50C4C86B0A078002810D10AA30DF19C
:10460000040C0FCB8CE80F0001A8009002234FF69A
:10461000FF7201212089FFF7D1FA0120A07006B0B6
:1046200010BD00001C000020669A0C200008969E19
:10463000E2119EB1E1F273D9421C007804285AD1EC
:104640001078052826D03E2826D0FF2853D132F8EE
:10465000023FA3F54063013B26D00E2B30D0274804
:104660000F2B0178264838D0112B44D1002942D194
:104670008178921C09B1017951B3C17800293AD0EF
:104680004179002937D1B2F8031081811DA000BF04
:10469000FEF790BEFCF73AB89178901C01292AD118
:1046A0004188801DFCF704B81C48917900780128E6
:1046B000908803D012F10702FBF76EBE0932FBE7C8
:1046C0001079801EC1B2B2F80500D21DFCF738B8CF
:1046D000B2F80310418112A0DAE700290BD18278E9
:1046E00001210AB102793AB1C278002A03D0427995
:1046F000002A00D141717047017170470F000020FE
:104700001C000020525820436861722048616E648A
:104710006C6520253034580A000000000C00002091
:10472000545820436861722048616E646C6520258E
:104730003034580A00000000010000E180AA094E50
:104740004F44454E52475F303030310028008000E2
:1047500000200000850600080F0000000D00000684
:1047600002030405060708090A0B0C0D0E0F1010B2
:104770000102030405060708090A0B0C0D0E0F10B1
:104780000000000000000000010203040607080901
:104790000000000001020304B847000800000020E8
:1047A00074000000D43300082C4800087400002076
:1047B000EC0C0000E43300080000000000000000E2
:1047C00000000000000100010000000000000000E7
:1047D0000000000001000000000040000000000098
:1047E00000000000000000000000000000000000C9
:1047F0000000000000040048000800480044004099
:104800000D00000600000000010000001000000084
:104810000000000000127A0000000000000000000C
:0C4820000000000000000000000000008C
:040000050800019559
:00000001FF
